:10000000731020B0731020B893000000130100009B
:10001000930100001302000093020000130300008C
:100020009303000013040000930400001305000074
:10003000930500001306000093060000130700005C
:100040009307000013080000930800001309000044
:1000500093090000130A0000930A0000130B00002C
:10006000930B0000130C0000930C0000130D000014
:10007000930D0000130E0000930E0000130F0000FC
:10008000930F000097610000938101301701010078
:100090001301C13597620000938202AF170301007C
:1000A0001303C33423A0020093824200E3CC62FE18
:1000B000732540F1930510006370B500130500002F
:1000C00093050000EF0040020F00F00F73D0408056
:1000D0006F00000073100581F322008193D2F201BA
:1000E000E39C02FE67800000130101F6232E110835
:1000F000232C8108232A91081304010A23282109AB
:10010000232631092324410923225109232061098F
:10011000232E7107232C8107232A91072328A10767
:100120002326B107B75702801387071C83A3071C38
:10013000130101FC1306010083224700B756028019
:10014000130101FC930401009380467F13092000F2
:1001500093098002B78C0280378A0280832F870040
:10016000032FC700832E0701032E470103238701B6
:100170008358C7010348E70103A5400023A0C4003A
:100180002324CA3023A8740023A2040023A424013A
:1001900023A6340123AA9C3083A5467F23AA5400BA
:1001A00083C7E00183AA800003ABC00083AB0001DA
:1001B00003AC400103AD800183DDC00137570280ED
:1001C000B766028023ACF40123AEE4019303A000E0
:1001D000938006BF23A0D40323A2C40323A46402F4
:1001E00023961403238704032322A4F81305C7428C
:1001F0002320B4F8230FF4F823AE7064232454F9B9
:10020000232664F9232874F9232A84F9232CA4F9DA
:10021000231EB4F9EF40001637560280B752028011
:100220009305061E1385021FEF40C01403AF4184DF
:10023000E3000F0E375E028013054E21EF4080135E
:1002400037939800B7580280375802809385082763
:1002500013060368930600001305C827EF408011BA
:10026000B75502801385C542EF40C010B7640280C5
:1002700003A5448137690280032D4983130A401F77
:10028000B7890280232444F72326A4F623AC09303F
:1002900093844481378A0280378C0280832A84F6D3
:1002A000375B028013050B2993850A00EF40800C11
:1002B000EF009062938D1A00EF00D02A930A10008D
:1002C000EF00103E13092000EF108014EF104011D2
:1002D00083C7E40183A3440083A2840083AFC400E6
:1002E00003AF040103A6440183A6840103D7C4011C
:1002F000832EC4F6130E1000930504FA130504F8B8
:10030000230FF4FA232A24F72320D4FB232274FAA0
:10031000232454FA2326F4FB2328E4FB232AC4FADB
:10032000232CD4FA231EE4FA232EC4F7EF0010097D
:10033000832744F713331500B788028023A2683E51
:100340006342F90C939027003388F0009309D8FF9B
:10035000130684F79305300013850700232C34F728
:10036000EF00007C032544F7130684F79305300063
:1003700093071500139B2700B30BFB00232AF4F609
:100380009383DBFF13850700634EF906232C74F675
:10039000EF000079832244F7130684F793053000B9
:1003A00093871200939F2700338FFF00232AF4F6D0
:1003B0009306DFFF138507006346F904232CD4F668
:1003C000EF000076032744F7130684F79305300007
:1003D00093071700939E2700338EFE00232AF4F61E
:1003E0001303DEFF13850700634EF900232C64F628
:1003F000EF000073832544F793871500232AF4F652
:10040000E352F9F4832684F7B7680280B78002804C
:1004100013860700938508BF1385C031EF00407134
:1004200003A54C31B7690280130B1004EF0050652F
:1004300003461A3113080004930B30009389498353
:100440006374C80213050B0093053004EF00C074F9
:100450008323C4F793021B006308756003451A31B8
:1004600013FBF20FE37065FF832844F7032B84F737
:10047000938A1A00B38B1B03130544F7B3C96B03AC
:10048000232A34F7EF00105AE390BAE5EF00D0309A
:10049000EF001016EF00504DEF001056938D0B003B
:1004A00023AEA18423A0B1863366B500930B0B0065
:1004B000138B090093890D00630E0660130D100065
:1004C000B784028023ACA431375E02801305CE2EA0
:1004D000EF30506A375302801305C342EF30906902
:1004E0008325CC30375C028013054C32EF309068A6
:1004F000B75402809305500013850434EF309067A1
:10050000B786028083A5463E375702801305C7355C
:10051000EF3050669305100013850434EF3090657A
:10052000B785028083C50531B757028013858737A9
:10053000EF305064B75A02809305100413854A398E
:10054000EF30506383451A31375A028013050A3B56
:10055000EF3050629305200413854A39EF309061E3
:10056000B7880280938DC83183A50D023759028068
:100570001305C93CEF3010609305700013850434F7
:10058000EF30505F37660280130D06BF8325CD65BF
:10059000375802801305883EEF30D05DB753028094
:1005A00013854340EF30105DB7520280138502433C
:1005B000EF30505C83AF4C31375F02801305CF437F
:1005C00083A50F002326E4F7B75D0280EF30905A31
:1005D0003755028013058545EF30D05983AE4C3135
:1005E0001385CD48375D028083A54E00375C0280BD
:1005F000B75A0280EF301058930500001385043479
:10060000EF30505703AE4C3113058D4A375A0280F4
:1006100083258E00B38B794193993B00EF30905541
:100620009305200013850434EF30D05403A34C31DC
:1006300013054C4C8325C300EF30D05393051001B4
:1006400013850434EF30105383AC4C3113850A4EBC
:1006500093850C01EF3010521305CA4FEF309051C3
:10066000B756028013854653EF30D050B78C0280C6
:1006700003A78C308325C4F61385C5438325070063
:10068000EF30504FB757028013858754EF30904EAC
:1006900083A88C301385CD48B75D028083A54800C0
:1006A000EF30504D9305000013850434EF30904C2B
:1006B00003A68C3013058D4A375D028083258600A2
:1006C000EF30504B9305100013850434EF30904AFF
:1006D00003A88C3013054C4C375C02808325C8007E
:1006E000EF3050499305200113850434EF309048D2
:1006F00083A38C3013850A4E93850301EF30904716
:100700001305CA4FEF301047832544F7B7520280D4
:1007100013858258EF30104693055000138504343A
:10072000EF305045B38F7941B3856F41375B02801D
:1007300013054B5AEF3010449305D0001385043451
:10074000EF305043832584F7375F028013050F5C39
:10075000EF3050429305700013850434EF30904120
:100760008325C4F71385CD5D374A0F00EF309040E5
:100770009305100013850434EF30D03FB754028046
:10078000930504F81385845FEF30D03E13054D6167
:10079000EF30503E37550280930504FA1305C564C7
:1007A000EF30503DB75E028013858E66EF30903C8F
:1007B0001305CC42EF30103C832984F683ACC1850D
:1007C00083AB01861386090093D6F94113850C008B
:1007D00093850B00EF408018930D0A24333EB50338
:1007E0003793980013060368930600003387B50318
:1007F0003305B503B305C701EF404016B79698001F
:1008000093880668130B050093840500338519034C
:1008100023A6618513860C0093860B0023A8918480
:10082000B3951903EF40801323ACB184B755028010
:1008300023AAA18413060B00938604001385056A7E
:10084000EF30503303A6418583A681853758028057
:100850001305486DEF30103203AD418503A9818542
:1008600037460000B333BD031306264A9306000043
:10087000B7540280B302B9033305BD03B3857200D8
:10088000EF40C00DB74F0F0013860F2493060000F2
:10089000EF400050374F000013062F4A130C05009D
:1008A000938A05009306000013050D0093050900C7
:1008B000EF40C00A130605003755028093870A00EF
:1008C00013070C009386050013058570EF30902AFE
:1008D000EF009012130B0500138D0500EF00005A76
:1008E000130A0500938C0500EF00C07C930B0500F4
:1008F000138C0500EF00C079B75E028093090500F4
:1009000093060D0013850E7213060B001389050064
:10091000EF305026375E02801305CE7313060B00AE
:1009200093050D00EF301025375302801305C37572
:1009300013060A0093850C00EF30D023375702804E
:100940001305077813860B0093050C00EF309022F7
:1009500013860900930509001385047AEF3090216E
:10096000B388BC0313060B0093060D00B337BA031C
:100970003305BA03B385F800B74D0F00EF30107E92
:1009800013860D2493060000EF408040930A050073
:1009900013060B0093060D0013050A0093850C0047
:1009A000EF30D07BB756028013860A00930505000E
:1009B0001385467CEF30101CB7D59A3B138805A0F1
:1009C000B303090313860B0093060C00B3B20903AB
:1009D00033850903B3855300EF30507837460F0055
:1009E0001306062493060000EF40803A930F40065A
:1009F00033BD3F03130B050093060C0013860B0059
:100A0000338F2F0333853F03B305AF01EF301075EC
:100A1000930505003755028013060B001305457D2D
:100A2000EF305015130104F68320C10913050000AF
:100A30000324810983244109032901098329C10869
:100A4000032A8108832A4108032B0108832BC1074D
:100A5000032C8107832C4107032D0107832DC10639
:100A60001301010A678000009305C4F71305000015
:100A7000EF00002383AF890083AB490003AFC900B7
:100A800083AE090103AE490103A3890183D6C901DD
:100A900003C7E90183451A3193071B00232274FB26
:100AA0002320A4FB2324F4FB2326E4FB2328D4FBEC
:100AB000232AC4FB232C64FA231ED4FA230FE4FA5E
:100AC00023265C3113FBF70F938B0A00E3FC659739
:100AD0006FF09F99B75002801385402BEF3090093B
:100AE000032884F6375502801305C5429313280066
:100AF000B3820301939F12002324F4F7EF30900791
:100B0000378F0280832E8F31638A0EF86FF0DF9B60
:100B1000B75E028013850E24EF30D0056FF04FF2E0
:100B200013052500B305B5002320B600678000003B
:100B3000130756001308800CB30207031316260090
:100B4000931727003305F5002320D500232CE50655
:100B50002322D500371F0000378802803383C2006C
:100B6000B383650083A6030123AAE30023ACE3005B
:100B70009388160023A81301032E0500B3855500A2
:100B8000B38EC500B30FDF011307500023AACFFBBC
:100B90002326E830678000001375F50F93F5F50FF5
:100BA0006306B5001305000067800000B787028068
:100BB0002388A7301305100067800000130101FF90
:100BC0002324810023229100232611001304050011
:100BD0009384050083C5340003452400EFF0DFFB58
:100BE0006302050283C5340003452400EFF0DFFAF9
:100BF000630A050083C5340003452400EFF0DFF9E4
:100C0000631005049385040013050400EF40405968
:100C100093020000635AA000B78702801307A00068
:100C200023A6E730930210008320C1000324810033
:100C30008324410013850200130101016780000035
:100C400083C5340003452400EFF01FF5E30C05FADB
:100C500083C5340003452400EFF01FF4E30405FAD4
:100C600083C5340003452400EFF01FF3E30C05F8BF
:100C700083C5340003452400EFF01FF2E30405F8B8
:100C800083C5340003452400EFF01FF1E31405F49D
:100C90006FF05FF71305E5FF13351500678000005F
:100CA000130101FF23248100232291002326110038
:100CB0001304050093840500EFF0DFFD630E0502C9
:100CC00023A084009300100063001404630604044E
:100CD00013072000630EE4049302400063145400E1
:100CE00023A0E4008320C100032481008324410069
:100CF00013010101678000009307300023A0F40076
:100D000093001000E31414FC378302808323C33064
:100D100013054006635A75028320C1000324810035
:100D200023A0040083244100130101016780000017
:100D300023A01400032481008320C10083244100E8
:100D400013010101678000008320C100032481009A
:100D50009305300023A0B400832441001301010156
:100D600067800000F32720B8732720B0F32620B84F
:100D7000638AD706F32720B8732720B0F32220B860
:100D800063825706F32720B8732720B0732320B857
:100D9000638A6704F32720B8732720B0F32320B8B1
:100DA00063827704F32720B8732720B0732520B817
:100DB000638AA702F32720B8732720B0F32520B851
:100DC0006382B702F32720B8732720B0732620B8B8
:100DD000638AC700F32720B8732720B0732820B890
:100DE000E39207F923AEE18223A0F184678000003B
:100DF000F32720B8732720B0F32620B8638AD706DC
:100E0000F32720B8732720B0F32220B86382570657
:100E1000F32720B8732720B0732320B8638A6704B0
:100E2000F32720B8732720B0F32320B86382770418
:100E3000F32720B8732720B0732520B8638AA70250
:100E4000F32720B8732720B0F32520B86382B702B8
:100E5000F32720B8732720B0732620B8638AC70011
:100E6000F32720B8732720B0732820B8E39207F93E
:100E700023AAE18223ACF1826780000083A541832D
:100E800003A5C18383A2818303A301843385A54085
:100E9000B3B3A50033866240B30576406780000097
:100EA000F32750B8732550B0732750B8F32640B8D5
:100EB000F32540B0732640B86384E70CF32750B89D
:100EC000732550B0F32250B8F32640B8F32540B054
:100ED000732640B86386570AF32750B8732550B07D
:100EE000732350B8F32640B8F32540B0732640B8BA
:100EF00063886708F32750B8732550B0F32350B8C0
:100F0000F32640B8F32540B0732640B8638A7706CD
:100F1000F32750B8732550B0732850B8F32640B863
:100F2000F32540B0732640B8638C0705F32750B80B
:100F3000732550B0F32850B8F32640B8F32540B0DD
:100F4000732640B8638E1703F32750B8732550B04B
:100F5000732E50B8F32640B8F32540B0732640B83E
:100F60006380C703F32750B8732550B0F32E50B8F1
:100F7000F32640B8F32540B0732640B8E392D7F388
:100F8000E390C6F223AEA18023A0F18223A6B18212
:100F900023A8D18267800000F32750B8732550B092
:100FA000732750B8F32640B8F32540B0732640B8F5
:100FB0006384E70CF32750B8732550B0F32250B880
:100FC000F32640B8F32540B0732640B86386570A2D
:100FD000F32750B8732550B0732350B8F32640B8A8
:100FE000F32540B0732640B863886708F32750B8EC
:100FF000732550B0F32350B8F32640B8F32540B022
:10100000732640B8638A7706F32750B8732550B02B
:10101000732850B8F32640B8F32540B0732640B883
:10102000638C0705F32750B8732550B0F32850B8E8
:10103000F32640B8F32540B0732640B8638E1703FB
:10104000F32750B8732550B0732E50B8F32640B82C
:10105000F32540B0732640B86380C703F32750B828
:10106000732550B0F32E50B8F32640B8F32540B0A6
:10107000732640B8E392D7F3E390C6F223AAA18087
:1010800023ACF18023A2B18223A4D1826780000027
:1010900083A5418103A5C18183A2818103A301822C
:1010A0003385A540B3B3A50033866240B3057640CF
:1010B0006780000083A5418203A5C18283A281824B
:1010C00003A301833385A540B3B3A50033866240F3
:1010D000B305764067800000F32700B8732700B09F
:1010E000F32600B8638AD706F32700B8732700B049
:1010F000F32200B863825706F32700B8732700B0C5
:10110000732300B8638A6704F32700B8732700B01D
:10111000F32300B863827704F32700B8732700B085
:10112000732500B8638AA702F32700B8732700B0BD
:10113000F32500B86382B702F32700B8732700B025
:10114000732600B8638AC700F32700B8732700B07E
:10115000732800B8E39207F9B768028023A8E8B8BB
:1011600023A8F18067800000F32700B8732700B040
:10117000F32600B8638AD706F32700B8732700B0B8
:10118000F32200B863825706F32700B8732700B034
:10119000732300B8638A6704F32700B8732700B08D
:1011A000F32300B863827704F32700B8732700B0F5
:1011B000732500B8638AA702F32700B8732700B02D
:1011C000F32500B86382B702F32700B8732700B095
:1011D000732600B8638AC700F32700B8732700B0EE
:1011E000732800B8E39207F9B768028023A4E8B82F
:1011F00023A6F8B867800000B767028037670280CF
:1012000083A587B8032507B983A2C7B803A30181C3
:101210003385A540B3B3A50033866240B30576405D
:1012200067800000B787028003C70731930210046C
:10123000630457006780000003230500B783028022
:1012400083A5C33013069300B306B6402320D50010
:1012500067800000B787028003A647316308060055
:10126000032706002320E50003A64731B78202804A
:1012700083A5C2301306C6001305A0006FF05F8A75
:10128000130101FF2320210137890280832749317F
:10129000232481000324050003A70700232611004F
:1012A0002322910083AE470003AE870003A307010A
:1012B00083A8470103A8870183A5070203A6470265
:1012C00083A6870283A0C7029304050003A5C70174
:1012D0002320E40083A2040093035000232EA400E3
:1012E0002322D4012324C40123286400232A1401C7
:1012F000232C04012320B4022322C4022324D40279
:101300002326140223A674002326740023205400ED
:1013100013050400EFF01FF4032F440063000F08CF
:1013200003A904008320C10003244900832F09007E
:10133000832E8900032EC900032309018328490154
:10134000032889018325C90103260902832649024E
:10135000032789028327C90223A284000324810072
:1013600023A0F40123A4D40123A6C40123A864006C
:1013700023AA140123AC040123AEB40023A0C402A9
:1013800023A2D40223A4E40223A6F4020329010029
:1013900083244100130101016780000003A584003C
:1013A000930460009305840023269400EFF05F8F80
:1013B000832249310325C4001306C40083A302001D
:1013C0008320C10083244100232074000324810072
:1013D000032901009305A000130101016FF04FF4F0
:1013E000B787028083C20731378702808326473E52
:1013F0001383F2FB93331300B3E5D30037860280E7
:10140000130820042322B73EA3080631678000009A
:10141000B787028013071004B78202802388E73061
:1014200023A2023E678000006376D600B385C50024
:101430002380A50067800000678000006308050026
:1014400003A3050083A54500670003006780000033
:10145000130101FD0323810323248102232E310183
:10146000232C4101232A51012328610123267101E4
:10147000232481012320A10123261102232291028A
:101480002320210323229101137C2300138A0500CA
:1014900093090500930B0600938A0600130D0700BD
:1014A0001384070083250103032B410363100C2ED3
:1014B0001375130063120B2C63F4B7129307F0013A
:1014C000E3E287201347F4FFB304B70013F9740075
:1014D000B3078D009306000313060002630C09088E
:1014E000130414002380D700637CB40E9387170085
:1014F0006308C40E130E1000630EC907930C20007E
:1015000063029907930E30006306D905130F40005C
:10151000630AE903930F5000630EF9019300600022
:10152000E31819122380D7001304140093871700BF
:101530006308C40A2380D70013041400938717009C
:101540006300C40A2380D700130414009387170094
:101550006308C4082380D70013041400938717007E
:101560006300C4082380D700130414009387170076
:101570006308C406130414002380D70093020400F8
:101580006370B406630EC404A380D7001304140070
:101590006308C4042381D700138422006302C404B7
:1015A000A381D70013843200630CC4022382D700C6
:1015B000138442006306C402A382D700138452003E
:1015C0006300C4022383D70013846200630AC4004B
:1015D000A383D7001384720093878700E31CC4F8A9
:1015E0006306051A6374641B1305F001B3028D00D2
:1015F000636C85109343F4FF338763019374770022
:101600001309000393060002638A04082380220161
:1016100013041400938212006308D40E1306100002
:10162000638EC406130E20006382C407930C30003F
:1016300063869405930E4000638AD403130F500011
:10164000638EE401930F6000639AF47F238022018C
:1016500013041400938212006308D40A2380220129
:1016600013041400938212006300D40A2380220121
:1016700013041400938212006308D408238022010B
:1016800013041400938212006300D4082380220103
:1016900013041400938212006308D4061304140088
:1016A00023802201930004006302640F630ED404BC
:1016B000A3802201130414006308D40423812201AF
:1016C000138420006302D404A38122011384300018
:1016D000630CD40223822201138440006306D402E7
:1016E000A3822201138450006300D40223832201C9
:1016F00013846000630AD400A38322011384700062
:1017000093828200E31CD4F8937303016382030C79
:101710001377034063160700638A856A6308646B66
:1017200093040001638C984413072000638EE866DD
:101730001306F001636C8644330E8D00930C000396
:1017400023009E0113041400930EF00163E08E4405
:101750006318080613784300631C085E137F830038
:1017600063060F42B30F8D009300000223801F0019
:10177000130414006F00C0056316055E63F8B7001C
:101780009300F001E3F0F0D413040002937203011C
:10179000E38C02FA93770340E39407F8E31E04F620
:1017A00093050001638CB86E13052000E396A8F83A
:1017B000930C200623009D01130410006FF0DFF747
:1017C00033058D009308D002230015011304140083
:1017D0009372330093840B006380023C1303F4FF85
:1017E000937F740033096D003304940063820F0EFD
:1017F000130D1000638CAF0B93002000638A1F0849
:10180000930730006388FF06930540006386BF049A
:10181000130550006384AF029308600063961F575E
:10182000034509001386040093860A0093050A0005
:1018300093841400E78009001309F9FF03450900A8
:101840001386040093860A0093050A00938414000B
:10185000E78009001309F9FF034509001386040016
:1018600093860A0093050A0093841400E780090018
:101870001309F9FF034509001386040093860A0043
:1018800093050A0093841400E78009001309F9FF07
:10189000034509001386040093860A0093050A0095
:1018A00093841400E78009001309F9FF0345090038
:1018B000938214001386040093860A0093050A009D
:1018C000938402001309F9FFE7800900638A840A00
:1018D000034509001386040093860A0093050A0055
:1018E000E78009000345F9FF938C140093860A00F2
:1018F00013860C0093050A00130989FFE78009008D
:10190000034569001386240093860A0093050A00A4
:10191000E7800900034559001386340093860A00C6
:1019200093050A00E7800900034549001386440037
:1019300093860A0093050A00E780090003453900F1
:101940001386540093860A0093050A00E780090075
:10195000034529001386640093860A0093050A0054
:10196000E7800900034519001386740093860A0076
:101970009384840093050A00E7800900E39A84F4C5
:1019800063000C1C330C7441637C6C1B9343F4FFA9
:1019900033877301330E67011306040093860A0030
:1019A00093050A0013050002130D140093747E00C2
:1019B000E7800900B3067D4113040D0063F2661948
:1019C0006388040C130610006382C40A930E20007F
:1019D0006382D4091308300063820407130F4000A8
:1019E0006382E4051303500063826402930F600076
:1019F0006398F4431306040093860A0093050A00D3
:101A00001305000213041400E78009001306040004
:101A100093860A0093050A001305000213041400BC
:101A2000E78009001306040093860A0093050A0064
:101A30001305000213041400E780090013060400D4
:101A400093860A0093050A0013050002130414008C
:101A5000E78009001306040093860A0093050A0034
:101A60001305000213041400E7800900930014001A
:101A70001306040093860A0093050A00130500026A
:101A800013840000E7800900B307744163FA670B11
:101A9000130604001305000293860A0093050A004A
:101AA000E78009001309140093860A001306090051
:101AB00093050A0013050002E780090013062400BD
:101AC00093860A0093050A0013050002E7800900C7
:101AD0001306340093860A0093050A0013050002DA
:101AE000E78009001306440093860A0093050A0064
:101AF00013050002E78009001306540093860A00CC
:101B000093050A0013050002E7800900130664002C
:101B100093860A0093050A0013050002E780090076
:101B20001306740093050A0093860A001305000249
:101B300013048400E7800900B3057441E3EA65F506
:101B4000130504008320C10203248102832441027F
:101B5000032901028329C101032A8101832A41014A
:101B6000032B0101832BC100032C8100832C410036
:101B7000032D01001301010367800000937003022D
:101B8000638200289307F00163F0873013733300FA
:101B900093840B006318031A63706427B3836B018B
:101BA000B38C834033877C419374770013890B0097
:101BB0006382040E93061000638ED40A130620007D
:101BC000638EC408130E3000638EC407930E40006A
:101BD000638ED40513085000638E0403130F600056
:101BE000638EE40193860A0013860B0093050A00B6
:101BF0001305000213891B00E78009001306090082
:101C000093860A0093050A001305000213091900C0
:101C1000E78009001306090093860A0093050A006D
:101C20001305000213091900E780090013060900D3
:101C300093860A0093050A00130500021309190090
:101C4000E78009001306090093860A0093050A003D
:101C50001305000213091900E780090013060900A3
:101C600093860A0093050A00130500021309190060
:101C7000E7800900930419001306090093860A00FF
:101C800093050A001305000213890400E780090088
:101C9000638A9C0A130609001305000293860A0052
:101CA00093050A00E78009009304190013860400D5
:101CB00093860A0093050A0013050002E7800900D5
:101CC0001306290093860A0093050A0013050002F3
:101CD000E78009001306390093860A0093050A007D
:101CE00013050002E78009001306490093860A00E5
:101CF00093050A0013050002E78009001306590046
:101D000093860A0093050A0013050002E780090084
:101D10001306690093860A0093050A001305000262
:101D2000E7800900930489001306790093860A006E
:101D300093050A001305000213890400E7800900D7
:101D4000E39A9CF4E31C04A8138404006FF05FC3BF
:101D5000B3078D009305B0022380B700130414006D
:101D60006FF01FA7631008069372C300639C020400
:101D7000E37AB4869303F00163F683F4130400025C
:101D8000E36464996FF09FA0034509001386040083
:101D900093860A0093050A0093841400E7800900E3
:101DA0001309F9FF6FF0DFA79304F001E3E084DE8D
:101DB00033098D00930620062300D9001304140074
:101DC0006FF01F97130BFBFF6FF09FFA1309F4FFDF
:101DD000631C0908930600016382D80A13062000D9
:101DE000E388C89C130E00032300CD0113041000E8
:101DF000E30208966FF0DF9C93840B00E310049ECF
:101E00006FF09FF49308F001E3E4889CB3028D0027
:101E10009303800723807200130414006FF05F9116
:101E200093860A0013060D0093050A0013050002AD
:101E300013041D00E78009006FF0DFBB238022013F
:101E40001304140093821200E312D4806FF0DF8B2E
:101E50002380D70013041400938717006314C4EC85
:101E6000631205F86FF09F92930F00011304E4FFD3
:101E7000E386F8D1130409006FF01F8B937E0302F1
:101E8000638A0E0213040000B3058D00130580055C
:101E90002380A500130414006FF09F899378030238
:101EA000638A08001304800523008D0013041000CA
:101EB0006FF09F88130F80072300ED0113041000BB
:101EC0006FF09F8713040002631E05F06FF01F8CF4
:101ED00063080502130101FF23248100232611005A
:101EE0009307A00013040500630EF500130504001A
:101EF000032481008320C100130101016FE08F9D45
:101F0000678000001305D000EFE0CF9C13050400AC
:101F1000032481008320C100130101016FE08F9B26
:101F2000130101F72324810823229108232021098A
:101F3000232A51072324810723261108232E310742
:101F4000232C4107232861072326710723229107A9
:101F50002320A107232EB105938405001304060056
:101F6000138C0600930A0700130905006384051803
:101F7000130B0103930B1000376A0280B7690280CC
:101F800093074A8EB3806B41930C00009389498577
:101F9000232AF1002328110003450C0063060502E3
:101FA00093025002130C1C00630E550613860C009E
:101FB0009306040093850400E700090003450C0024
:101FC000938C1C00E31E05FC13860C0063E48C005C
:101FD0001306F4FF93060400938504001305000024
:101FE000E70009008320C1080324810813850C0041
:101FF00083244108032901088329C107032A810793
:10200000832A4107032B0107832BC106032C81067A
:10201000832C4106032D0106832DC10513010109FF
:102020006780000003450C0013071C0093050001A6
:10203000130305FE9373F30F9306000013060700C6
:1020400063EA750213982300B308380103AD080052
:1020500067000D0093E61600130C070003450C0003
:1020600013071C0013060700130305FE9373F30FF9
:10207000E3FA75FC930D05FD13FEFD0F930E900022
:10208000E3F6CE15130FA002130A0000E30AE5459C
:10209000930FE00213070000E302F52B930885F984
:1020A00093F2F80F130E2001E36A5E46376F028049
:1020B000939E2200930F8F89B387FE0183A50700AB
:1020C0006780050093E64600130C07006FF01FF9C8
:1020D00093E62600130C07006FF05FF893E6060105
:1020E000130C07006FF09FF793E68600130C0700B0
:1020F0006FF0DFF637190280130989436FF05FE74D
:1021000003451C0093E60610130C16001306B5FDDC
:102110009373F60F13083005E36A78E8832D4101C5
:10212000139D2300B308BD0103AE080067000E0035
:1021300003AD0A0013854A00232EA10003450D00BC
:10214000E31E073E930AE0FF631405006F20C00DF5
:1021500093821A0093FE7200930D0D00638C0E089B
:10216000130F1000638AEE07930F20006380FE07B1
:10217000930730006386FE0493054000638CBE0223
:102180009300500063821E021303600063886E0098
:1021900003461D00930D1D006300060C938D1D006A
:1021A00083C30D00638A030A938D1D0003C80D00CD
:1021B0006304080A938D1D0083C80D00638E080810
:1021C000938D1D0003CE0D0063080E08938D1D0036
:1021D00083C20D0063820208938D1D0083CE0D0023
:1021E000638C0E06338FBB41B30FED01B3875F01E4
:1021F00063840706938D1D0083C50D0093800D0039
:10220000638C0504938D1D0003C30D006306030456
:1022100003C62000938D20006300060483C33000B2
:10222000938D3000638A030203C84000938D400001
:102230006304080283C85000938D5000638E080029
:1022400003CE6000938D600063080E0083C27000AF
:10225000938D7000E39802F8B38AAD41232C5101AD
:1022600013F8064063080800832E81016374D701C8
:10227000232CE10093FA2600E3820A72938D0C006E
:10228000E3020554630408006F10D00A13860C00A3
:102290009306040093850400E700090003451D0030
:1022A000938D1C0013860D006306050C9306040035
:1022B00093850400E700090003452D00938D2C0051
:1022C00013860D006308050A930604009385040035
:1022D000E700090003453D00938D3C0013860D0087
:1022E000630A05089306040093850400E7000900CB
:1022F00003454D00938D4C0013860D00630C0506BD
:102300009306040093850400E700090003455D007F
:10231000938D5C0013860D00630E05049306040084
:1023200093850400E700090003456D00938D6C0060
:1023300013860D00630005049306040093850400D2
:10234000E700090003457D00938D7C0013860D0096
:10235000630205029306040093850400130D8D00AB
:10236000E700090003450D00938D8C00938C0D0050
:10237000E31E05F0E3980A44832AC101938C0D0003
:102380006FF09FC103A30A0013E51602938A4A0067
:10239000E30A0318930F010593060B0093059000C1
:1023A000137FF3009377FF0F93807703E3FCE5152A
:1023B000135643000323010123801600B307D30003
:1023C00063040612137AF6009373FA0F93861600CD
:1023D00093887303E3FC451303280101238016014E
:1023E000135E4600B307D80063000E10137DFE0095
:1023F0009372FD0F938D1600938E7203E3FCA5116B
:10240000032F0101A380D60193504E00B307BF01F3
:10241000638C000C13F6F0001373F60F93872600FD
:10242000130A7303E3F4C5128328010123814601D3
:1024300093D34000B387F8006388030A13FEF300C8
:102440001378FE0F138D360093027803E3F4C51161
:10245000832E0101A381560093DD4300B387AE01B3
:1024600063840D0893F0FD0013FFF00F1383460003
:1024700013067F03E3F4150E832701012382C600B0
:1024800013DA4D00B387670063000A069373FA00FE
:1024900093F8F30F138E560013887803E3F4750C4A
:1024A00083220101A3820601135D4A00B387C201A2
:1024B000630C0D02937DFD0093F0FD0F138F6600FA
:1024C000938E7003E3F4B50B032601012383D60139
:1024D00013534D00B307E6016308030093867600AB
:1024E000E390DFEC93070002930F80002324A10008
:1024F0002322F1012320E1009308000113080000CA
:1025000013860C0013070B00930604009385040048
:1025100013050900EFE0DFF3930C05006FF0DFA770
:1025200093854A00938D1C0013F72600232CB100DD
:10253000138D0D00E302076C03C50A009306040027
:1025400013860C0093850400E7000900B30A9A0182
:10255000E3F44B27338ABA4193777A006382070EFC
:1025600093031000638E770A93082000638E170987
:10257000130E3000638EC70713084000638E0705F3
:1025800093025000638E5702930D6000638EB70173
:1025900013060D0093060400938504001305000242
:1025A000138D2C00E700090013060D0093060400AC
:1025B0009385040013050002130D1D00E7000900B8
:1025C00013060D0093060400938504001305000212
:1025D000130D1D00E700090013060D00930604000B
:1025E0009385040013050002130D1D00E700090088
:1025F00013060D00930604009385040013050002E2
:10260000130D1D00E700090013060D0093060400DA
:102610009385040013050002130D1D00E700090057
:10262000930C1D0013060D0093060400938504000F
:1026300013050002138D0C00E700090063885C0B92
:1026400013060D0013050002930604009385040091
:10265000E7000900130A1D009306040013060A0090
:102660009385040013050002E700090013062D00FE
:10267000930604009385040013050002E700090097
:1026800013063D0093060400938504001305000221
:10269000E700090013064D0093060400938504002B
:1026A00013050002E700090013065D00930604000D
:1026B0009385040013050002E700090013066D006E
:1026C000930604009385040013050002E700090047
:1026D00013067D0093060400130D8D0093850400FE
:1026E00013050002E7000900E31C5DF5938C0A0066
:1026F000832A81016FF05F8A93058007E302B54E5C
:10270000930780056308F5669303F006631475006C
:102710006F10001793082006631415016F10502DD9
:1027200013F8F6FE130E9006232C01016304C50175
:102730006F10104093F20640638402006F10801304
:1027400013F60620930DA000E31A0668832E81017C
:10275000138D4A0093F70E10638407006F10806595
:102760000323810193730304639403006F109003A8
:1027700083CA0A0093D0FA41B3C55001B38615400D
:1027800013D8FA01639C0A00032E81011376FEFE22
:10279000137F0E40232CC100631E0F188327810175
:1027A000930E100693F2070263840200930E100446
:1027B000930F010513060B001303900093836EFF24
:1027C000B3F8B60313F5F80F637413016F10400DDF
:1027D0009305050393F0F50FB3D6B603032E01015D
:1027E00023001600B307CE0063860614B3F7B603C2
:1027F0001306160013FFF70F6374F3006F104031D8
:10280000930E0F0393F8FE0F33D5B603832A01010D
:1028100023001601B387CA00630E0510B370B50319
:102820009305160093F6F00F636413006F10C02F2A
:10283000338E7600137FFE0FB35EB503832801014C
:10284000A300E601B387B80063860E0EB3F2BE03A1
:102850001305260093FAF20F636453006F10C073E0
:10286000B3807A0013FEF00FB3D6BE032301C60176
:10287000B387A8006380060CB3FEB6039307360047
:1028800013FFFE0F6364D3016F10C073B3027F00A8
:1028900093FAF20FB3D0B603A3015601B387F80041
:1028A000638A0008B3F5B003130E460093F6F50FE4
:1028B0006364B3006F100073B38E760013FFFE0FD6
:1028C00033D5B0032302E601B387C80163040506CC
:1028D000B372B503930A560093F0F20F636453008A
:1028E0006F108072B385700093FEF50FB356B50379
:1028F000A302D601B3875801638E060233F5B603EF
:1029000093076600137FF50F6364A3006F10D00E6A
:10291000B3027F0093F0F20FB3D6B6032303160081
:10292000B387F8006388060013067600E39ACFE8C1
:1029300093070002832F8101232241012320E1001C
:102940002324F10193880D0013860C0013070B005C
:10295000930604009385040013050900EFE05FAFC0
:10296000930C0500930A0D006FF00FE313860C0023
:10297000930604009385040013055002938C1C00F9
:10298000E70009006FF04FE103451C009300C0060B
:10299000631A15F603452C0093E60630130C3C0031
:1029A0006FF0CFF603451C0093E60620130C1600CB
:1029B0006FF0CFF503451C00130380066308657CA8
:1029C00093E60608130C16006FF04FF4130A00008C
:1029D000930F900013162A00330A460193171A002A
:1029E000B380A70003450700138A00FD930205FD8D
:1029F00093F5F20F63E0BF2E131C2A0033034C0142
:102A000093131300130C0700130717003388A30058
:102A10000345070093080700130A08FD130D05FD81
:102A2000937DFD0F63E8BF2B131E2A00B30E4E01EA
:102A3000130C0700139F1E00130717003306AF0087
:102A400003450700130A06FD930705FD93F0F70FF2
:102A500063E21F2893122A00338A420193151A0059
:102A60003383A50003C52800130C0700130A03FDD8
:102A7000130705FD9373F70F1387280063EC7F247A
:102A8000131C2A0033084C01131D1800B30DAD00B0
:102A900003C53800130C0700138A0DFD130E05FD46
:102AA000937EFE0F1387380063E6DF23131F2A008F
:102AB00033064F0193171600B380A70003C54800E3
:102AC000130C0700138A00FD930205FD93F5F20F26
:102AD0001387480063E0BF2013132A00330A430121
:102AE00093131A003388A30003C55800130C070082
:102AF000130A08FD130705FD137DF70F1387580010
:102B000063EAAF1D131C2A00B30D4C01139E1D0078
:102B1000B30EAE0003C56800130C0700138A0EFD48
:102B2000130F05FD1376FF0F1387680063E4CF1AB8
:102B3000130C0700138778006FF0DFE903451C00D2
:102B40009308900093E60640930705FD93F0F70F76
:102B500063F218129302A00263085560130C06007A
:102B6000130616006FF08FD3131627003303E60009
:102B7000931313003388A30003451C0013060C00B5
:102B8000130708FD130D05FD937DFD0F130C1C00AD
:102B900063EEB813131E27003307EE00931E1700D1
:102BA000338FAE0003C5320013862200138C32002F
:102BB000930F05FD93F7FF0F13070FFD63E8F81060
:102BC00093102700B385E000139615003303A60089
:102BD00003C5420013060C00130703FD130C05FD8B
:102BE0009373FC0F138C420063E2780E13182700D6
:102BF000330DE800931D1D00338EAD0003C5520058
:102C000013060C0013070EFD930E05FD13FFFE0FB8
:102C1000138C520063ECE80B931F27003387EF00FF
:102C200093171700B380A70003C5620013060C00BA
:102C3000138700FD930505FD13F3F50F138C620058
:102C400063E6680813162700B303E6001398130021
:102C5000330DA80003C5720013060C0013070DFD09
:102C6000130C05FD937DFC0F138C720063E0B80715
:102C700013060C00131827003307E800131D170074
:102C8000B30DAD0003451600130C160013870DFDA0
:102C9000130E05FD937EFE0F63EAD803131F270072
:102CA000B30FEF0093971F00B380A70003451C00EC
:102CB00013060C0093020C00130C05FD9375FC0F1A
:102CC000138700FD130C1600E3F0B8EA1306260084
:102CD0006FF0CFBC13062C00130C07006FF04FBB36
:102CE00003AA0A00938A4A0063560A0093E6260064
:102CF000330A404113062C0003451C00130C070047
:102D00006FF00FB9938007036FF08FEA9388030386
:102D10006FF08FEC938E02036FF08FEE130C0600B2
:102D20006FF0CFBE93FDF6FE93FE064013E51D0245
:102D30009307000063800EE66FF00FFB631405003D
:102D40006F10804E930AF7FF6FF08FC0130A0303D2
:102D50006FF08FED930208036FF08FEF13060F03F0
:102D60006FF08FF1138808036FF08FF3938E0003D9
:102D70006FF08FF513FF36FF13630F0293FE0640CB
:102D8000232C6100E38C0E2C930D000193060300AD
:102D900093F6E6FF232CD100930F900613F606203E
:102DA000E304F59B130D4006E300A59BE3160630F4
:102DB00003258101138D4A00937F051063840F0062
:102DC0006F10402693750504639405006F108024EE
:102DD00083C60A00639C0600832A810193F3FAFEEE
:102DE00093F80A40232C71006398081A032E81017E
:102DF0009302100613780E02630408009302100475
:102E00009300010513060B00930E9000138362FFDD
:102E100033FFB603937FFF0F63F4EE016F10C01909
:102E200093870F0393F5F70FB3DAB60383260101F7
:102E30002300B600B38FC60063800A16B3F3BA034B
:102E40001306160093F8F30F63F47E006F1040181A
:102E5000138808039372F80F33DFBA03832F01013D
:102E600023005600B38FCF0063080F123375BF03E2
:102E7000930516009377F50F63E4AE006F104017CB
:102E8000B38A670093F3FA0FB358BF03032E01010F
:102E9000A3007600B30FBE006380081033F8B803B8
:102EA00093022600137FF80F63E40E016F100015E4
:102EB000B30F6F0093F5FF0FB3DAB8038327010157
:102EC0002301B600B38F570063880A0CB3F6BA0328
:102ED0009303360093F8F60F63E4DE006F10803240
:102EE000338E68009372FE0F33D5BA03032F0101AE
:102EF000A3015600B30F7F006300050AB375B50345
:102F0000930F460093FAF50F63E4BE006F10403054
:102F1000B3876A0093F3F70FB358B503032E01018B
:102F200023027600B30FFE016388080633F8B80366
:102F3000930256001375F80F63E40E016F10003012
:102F4000330F6500937FFF0FB3DAB80383270101C6
:102F5000A302F601B38F570063800A04B3F6BA03E5
:102F60009303660093F8F60F63E4DE006F10402CC5
:102F7000338E68009372FE0FB3D6BA0303250101A6
:102F800023035600B30F750063880600130676000E
:102F9000E390C0E8930F00028320810123224101C6
:102FA0002320E1002324110093880D001308000062
:102FB00093870F006FF05F99938C0D00832A810136
:102FC0006FE09FFD832A810163F84ABB330ABA018F
:102FD000B30C5A413385BC419373750013860D00C1
:102FE000638E030C93081000638E130B130E2000E6
:102FF000638EC30913083000638E0307130D40006E
:10300000638EA30593025000638E53021307600082
:10301000638EE30093060400938504001305000209
:10302000938D1D00E700090013860D009306040030
:103030009385040013050002938D1D00E70009002D
:1030400013860D0093060400938504001305000207
:10305000938D1D00E700090013860D009306040000
:103060009385040013050002938D1D00E7000900FD
:1030700013860D00930604009385040013050002D7
:10308000938D1D00E700090013860D0093060400D0
:103090009385040013050002938D1D00E7000900CD
:1030A00013860D00938D1D00930604009385040084
:1030B00013050002E700090063809DAD13860D0033
:1030C000930604009385040013050002E70009003D
:1030D00013861D0093060400938504001305000267
:1030E000E700090013862D00930604009385040071
:1030F00013050002E700090013863D009306040053
:103100009385040013050002E700090013864D00B3
:10311000930604009385040013050002E7000900EC
:1031200013865D00930604009385040013050002D6
:10313000E700090013866D009306040093850400E0
:1031400013050002E700090013867D0093060400C2
:10315000938D8D009385040013050002E70009009C
:10316000E39E9DF56FF04FA183A50A0003452C0057
:1031700013063C0013C3F5FF9353F34133F7750077
:10318000938A4A00130C2C006FE05FF103452C007A
:1031900093E6060C130C3C006FE05FF78326810179
:1031A000138F160063E446016F10800D33059A01FA
:1031B000B30DD540B38F9D4193F77F0013860C006C
:1031C0006386071493051000638EB71093002000E8
:1031D0006386170E13033000638E670A9303400063
:1031E0006386770893085000638E1705130E6000FE
:1031F0006386C7032320E102232C01019306040008
:103200009385040013050002E7000900032701026B
:1032100003288101938C1C0013860C002320E102FB
:10322000232C01019306040093850400130500027A
:10323000E70009000327010203288101938C1C0089
:1032400013860C002320E102232C010193060400C5
:103250009385040013050002E7000900032701021B
:1032600003288101938C1C0013860C002320E102AB
:10327000232C01019306040093850400130500022A
:10328000E70009000327010203288101938C1C0039
:1032900013860C002320E102232C01019306040075
:1032A0009385040013050002E700090003270102CB
:1032B00003288101938C1C0013860C002320E1025B
:1032C000232C0101930604009385040013050002DA
:1032D000E70009000327010203288101938C1C00E9
:1032E00013860C002320E102232C01019306040025
:1032F0009385040013050002E7000900938C1C006D
:103300000328810103270102638EBC0B2320E10205
:10331000232C010113860C009306040093850400FE
:1033200013050002E700090013861C009306040041
:103330009385040013050002E700090013862C00A2
:10334000930604009385040013050002E7000900BA
:1033500013863C00930604009385040013050002C5
:10336000E700090013864C009306040093850400CF
:1033700013050002E700090013865C0093060400B1
:103380009385040013050002E700090013866C0012
:10339000930604009385040013050002E70009006A
:1033A00013867C0093060400938504001305000235
:1033B000E7000900938C8C00032881010327010298
:1033C000E396BCF503450D0013061A00232CC1003B
:1033D000938D0C00630405006FE0DFEA6FE0DFF916
:1033E00013F60640930D000193F636FF232CD1000F
:1033F000E304069A6FF0DF99E3F44B6D9380FCFFD2
:10340000338D4001330FBD41137A7F00630A0A18E0
:1034100013860C0093060400938504001305000234
:10342000E7000900930E1000938C0D00938D1D0092
:103430006308DA171303200063086A0A13063000D2
:103440006306CA08930640006304DA0613055000B9
:103450006302AA04930F60006300FA0313860C0052
:10346000930604009385040013050002938C0D005D
:10347000E7000900938D1D0013860C0093060400DD
:103480009385040013050002938C0D00E7000900EA
:10349000938D1D0013860C00930604009385040091
:1034A00013050002938C0D00E7000900938D1D00A9
:1034B00013860C0093060400938504001305000294
:1034C000938C0D00E7000900938D1D0013860C00FE
:1034D000930604009385040013050002938C0D00ED
:1034E000E7000900938D1D0013860C00930604006D
:1034F0009385040013050002938C0D00E70009007A
:10350000938D1D006F00C00913860D009306040003
:103510009385040013050002E7000900138A2C00BC
:103520009306040013060A009385040013050002A5
:10353000E700090013863C0093060400938504000D
:1035400013050002E700090013864C0093060400EF
:103550009385040013050002E700090013865C0050
:10356000930604009385040013050002E700090098
:1035700013866C0093060400938504001305000273
:10358000E700090013867C0093060400938504007D
:1035900013050002938C8C00E7000900930D7A005C
:1035A0009306040013860C009385040013050002A3
:1035B000138A0D00E7000900E398ADF5938C2C0009
:1035C00003C50A009306040013060A00938504004D
:1035D000E7000900832A81016FE01F9C138D7A00A8
:1035E00013788DFF8320480003250800930A880084
:1035F00093D5F041B3C7A500338FB740B3C21500D0
:1036000013D6F001B3B6E7013383B240B3631500BC
:103610002326C1023303D340639C03008328810126
:1036200013FEF8FE93FF0840232CC101E39C0F4AD0
:10363000832E81019300100613FD0E0263040D001A
:1036400093001004138560FF130D0B002324A102C7
:1036500013050F0013860D00930600009305030069
:103660002322E1022320E103232E6100EF104072A8
:103670009375F50F930790000328C101032F0102F2
:103680000327410263ECB71A9383050313F3F30F87
:1036900013860D0023006D009306000013050F0034
:1036A00093050800232EE100EF10402B8328010131
:1036B00033E6A5002322A1022320B102B387A8018B
:1036C0000327C101630E061413860D009306000044
:1036D000EF10006C937EF50F13059000130D1D0085
:1036E0008325C10103280102032F41026360D5171E
:1036F00013870E039372F70F232EB1009306000079
:1037000023005D0013860D0013050F0093050800CC
:10371000EF10C02403230101B3E6A5002322A10278
:103720002320B102B307A3010327C101638A060E58
:1037300013860D0093060000EF1080659378F50F57
:10374000130E9000930F1D00832EC10183250102EB
:1037500003254102637A1E1103288102338F080179
:103760009377FF0FA300FD009306000013860D0062
:103770002320F103232ED101EF10401E0327010166
:1037800083260102B3E2A5002322A1022320B10275
:10379000B307D7000327C1016384020813860D0015
:1037A00093060000EF10C05E9378F50F13069000AB
:1037B000930F2D00032EC101832E010283254102A8
:1037C0006376160F032581023388A8009370F80FE3
:1037D0001385050023011D0013860D0093060000CC
:1037E00093850E002320F103232EC101EF10001753
:1037F0000327010183270102B3E2A500130F05008F
:10380000B307F700138305000327C101638A020091
:10381000130D3D0093060105E39CA6E39307000208
:1038200083238101232241012320E100232471000D
:1038300093880D000328C1026FE09FCC8322810290
:10384000B386550013F3F60F6FF09FE483208102D7
:10385000B3871E0093F2F70F6FF01FEA13F60620EE
:10386000930D00016FF08FD49380080393F7F00F4E
:103870006FF05FEF930DA000930608006FF04FD13B
:10388000930D80009300400613F60640E31E15B426
:103890006316067413F60620232CD1006FE0DFEACE
:1038A000B30A750093F0FA0F6FE01FF3138F08034C
:1038B0009370FF0F6FF0DFF1138D7A0093728DFF1D
:1038C00003A8020003AF4200938A8200B36FE801AD
:1038D000639C0F00832E810113F5FEFE13F30E404F
:1038E000232CA100E31203248325810193081006F1
:1038F00093F305026384030093081004938768FF21
:10390000130D0B002324F10213860D009306000013
:103910001305080093050F002322E1022320010371
:10392000232EE101EF10C0461376F50F93069000A9
:10393000032FC101032801020327410263EAC61ACB
:10394000930F060393F2FF0F23005D0013860D0013
:10395000930600001305080093050F00232EE100D5
:10396000EF00D07F03230101B3EEA5002322A102C3
:103970002320B102B307A3010327C101638E0E14F4
:1039800013860D0093060000EF1080401375F50FAD
:1039900093059000130D1D000326C10103280102A9
:1039A000032F410263EEA514130705039370F70F6D
:1039B000232EC10023001D0013860D009306000076
:1039C00013050F0093050800EF00507983220101D1
:1039D00033EEA5002322A1022320B102B387A20166
:1039E0000327C101630A0E0E13860D009306000023
:1039F000EF10003A1373F50F9308900093031D0026
:103A00000325C101832501020328410263F86810E0
:103A100003268102330FC3009376FF0F232EA100EC
:103A2000A300DD0013860D009306000013050800B7
:103A300023207102EF00907203270101832201020B
:103A400033EEA5002322A1022320B102B3075700C1
:103A50000327C10163020E0813860D0093060000C0
:103A6000EF1000331373F50F9308900093032D00AC
:103A70000325C101832501020328410263F8685030
:103A800083208102330613009377F60F232EA100C3
:103A90002301FD00930600001305080013860D00A6
:103AA00023207102EF00906B03270102032E010116
:103AB000B3E6A50013080500B307EE00138F050059
:103AC0000327C101638A0600130D3D00930201051F
:103AD000E39CA2E393070002832F8101232241018B
:103AE0002320E1002324F10193880D006FE01FA142
:103AF00083208102330E16009372FE0F6FF0DFE415
:103B000083278102B306F50093F0F60F6FF05FEAAA
:103B1000B3027F0093F8F20F6FE01FCF9307030308
:103B200093F6F70F6FF09FEF9387060313FFF70FDE
:103B30006FE09FD0937277003307ED002320E102FE
:103B4000638A0214232251029306040013860C0098
:103B500093850400130D1D00E700090003450D00C7
:103B6000938D1C00631405006FE0DF808326410203
:103B7000930E1000938C0D00638ED611130F20004E
:103B80006386E60F930F3000638EF60B93074000B9
:103B90006386F60893055000638EB60493006000B8
:103BA0006386160213860D009306040093850400B5
:103BB000E700090003451D00938D1D00130D1D0036
:103BC000938C0D00631405006FE0CFFA13860C0090
:103BD0009306040093850400E700090003451D00D7
:103BE000938D1D00130D1D00938C0D0063140500B3
:103BF0006FE04FF813860C009306040093850400D1
:103C0000E700090003451D00938D1D00130D1D00E5
:103C1000938C0D00631405006FE0CFF513860C0044
:103C20009306040093850400E700090003451D0086
:103C3000938D1D00130D1D00938C0D006314050062
:103C40006FE04FF313860C00930604009385040085
:103C5000E700090003451D00938D1D00130D1D0095
:103C6000938C0D00631405006FE0CFF013860C00F9
:103C70009306040093850400130D1D00E70009005E
:103C800003450D00938D1D00938C0D0063140500FA
:103C90006FE04FEE03230102630AA31193060400B1
:103CA00013860C0093850400E700090003451D00FE
:103CB000938D1C00631405006FE0CFEB13860D009D
:103CC0009306040093850400E700090003452D00D6
:103CD000938D2C00631405006FE0CFE99306040078
:103CE00013862C0093850400E700090003453D007E
:103CF000938D3C00631405006FE0CFE713860D0041
:103D00009306040093850400E700090003454D0075
:103D1000938D4C00631405006FE0CFE513860D0012
:103D20009306040093850400E700090003455D0045
:103D3000938D5C00631405006FE0CFE313860D00E4
:103D40009306040093850400E700090003456D0015
:103D5000938D6C00631405006FE0CFE113860D00B6
:103D60009306040093850400E700090003457D00E5
:103D7000938D7C00631405006FE0CFDF13860D0088
:103D80009306040093850400130D8D00E7000900DD
:103D900003450D00938D8C00631405006FE08FDDEB
:103DA00003230102938C0D00E31AA3EF938D0C0003
:103DB0006FE04FDC03A30A001358F341B3436800DC
:103DC000B38F03411358F301631C0300832881015F
:103DD00093F5F8FE13FE0840232CB100631A0E1869
:103DE000832E81019307100613F50E02630405006C
:103DF0009307100493F2F70F130F0105930E0B00B6
:103E0000930A9000938062FFB3F6BF0313F6F60F98
:103E100063E6DA409308060393F3F80FB3DFBF03BA
:103E20008325010123807E003386D50163820F1430
:103E300033FEBF03938E1E001375FE0F63E6CA4167
:103E40009302050393F6F20F33D3BF030326010158
:103E50002380DE003306D601630C0310B373B30373
:103E600093881E0093FFF30F63F07A40B3851F0021
:103E700013F5F50FB357B30383220101A380AE00FE
:103E8000338612016386070EB3F6B70313832E0041
:103E900013F6F60F63F4DA3CB303160093F5F30F51
:103EA000B3DFB703032E01012381BE0033066E008A
:103EB00063800F0C33F5BF0393873E009372F50FB9
:103EC00063FAAA3EB386120013F6F60FB3D3BF030C
:103ED00083280101A381CE003386F800638A03089A
:103EE000B3FFB303138E4E0093F5FF0F63FEFA3B4F
:103EF000338515009372F50FB3D6B3030323010185
:103F000023825E003306C30163840606B3F3B6035F
:103F100013865E0093F8F30F63F07A3CB38F1800BA
:103F200093F5FF0F33D5B60383270101A382BE00AB
:103F30003386C700630E0502B372B50393866E0025
:103F400013F3F20F63F45A38B303130093F8F30F2B
:103F5000B35FB503032E010123831E013306DE0088
:103F600063880F00938E7E00E310DFEB13060002E0
:103F7000032F8101232241012320E1002324E101B9
:103F800093880D00930706006FE01F9C130F030337
:103F90009377FF0F6FF09FAF93850A0313FEF50F22
:103FA0006FE09F8C8328810113F508086304052ABC
:103FB000839A0A006FE00FFC33856F009375F50F4D
:103FC0006FE09FE613050F03937AF50F6FE09F8C68
:103FD000338E68009372FE0F6FE01FE8232CD10030
:103FE0006FE01FDB9387060313FFF70F6FE05F8D12
:103FF0009386070393F3F60F6FE01FE913050F0392
:104000009375F50F6FE05FEB138E0003937EFE0F49
:104010006FE0DF8D937705086388072683D60A0053
:104020006FE05FDB83A70A00639C0700832E81019A
:1040300013F3FEFE13FF0E40232C6100631A0F18CA
:10404000832581019303100693FA050263840A0015
:104050009303100493F8F30F130E010593060B005E
:1040600013089000938268FF33F5B703937FF50F31
:104070006362A820938E0F0393F0FE0F33D3B70330
:1040800083270101238016003386D70063020314BF
:10409000337FB303938616009375FF0F636AE81F9F
:1040A0009383050393F8F30FB35FB3030325010173
:1040B000238016013306D500638C0F10B3F0BF03C5
:1040C0001386160093FEF00F637A181C33835E008C
:1040D000137FF30FB3D5BF03832A0101A380E60149
:1040E0003386CA006386050EB3F3B50393882600B2
:1040F00093FFF30F637C781E33855F001376F50F13
:10410000B3DEB503032301012381C6003306130187
:1041100063800E0CB3F7BE03138F360093F5F70FD1
:10412000637CF81CB38A550093F8FA0FB3D0BE0332
:10413000832F0101A38116013386EF01638A0008F2
:10414000B3FEB0031386460013F5FE0F637CD81B45
:1041500033035500137FF30FB3D5B003832A010156
:104160002382E6013386CA0063840506B3F3B503F0
:104170009388560093F0F30F6372781AB38F500050
:1041800013F6FF0F33D3B50303250101A382C60045
:1041900033061501630E0302B377B303138F660072
:1041A00093F5F70F6376F816B38A550093F8FA0F74
:1041B000B357B30383200101238316013386E00143
:1041C0006388070093867600E310DEEA1306000298
:1041D000032E8101232241012320E1002324C10178
:1041E00093880D0013080000930706006FE0CFF5D9
:1041F000930D20006FF00FE9930A0F0393F0FA0F6D
:104200006FE08FF1138808039372F80F6FE0DFCD32
:1042100093860A0393F3F60F6FE01FD03303160063
:104220009373F30F6FF09FBF232C01006FE04F8358
:10423000138808039372F80F6FE01FD493050503EA
:1042400093FFF50F6FE05FD0B307150093F6F70FFC
:104250006FF09FBF83AA0A006FE0CFD193080603D7
:1042600093F5F80F6FF0DFC3138E0F031375FE0F76
:104270006FF05FC033865F009370F60F6FF01FE042
:10428000232CE1016FF0CF9483A60A006FE09FB466
:10429000B38A550093F8FA0F6FF01FE193870E036E
:1042A00013FFF70F6FF01FE39387050393F2F70FE8
:1042B0006FF09FC4138302031376F30F6FF01FC1D7
:1042C000138A0C00938C0D006FF08FAF130603035D
:1042D0009378F60F6FF0DFC7138E08039375FE0F08
:1042E0006FF05FC4930700006FF08FD393800F03CC
:1042F00013F6F00F6FF0DFE09383050393F8F30FED
:104300006FF0DFE29307050313FFF70F6FF0DFE4B1
:104310009383050393F8F30F6FF09FE9938E0003E7
:1043200013F6FE0F6FF01FE6930700006FF0CFFA51
:1043300093060800930DA0006FF0CFD4130101FF86
:1043400023248100232611009307A00013040500F5
:10435000630CF50013050400032481008320C100D1
:10436000130101016FB01FD71305D000EFF01FFD3F
:104370006FF05FFE130101FC130341022326D102FB
:1043800093060500372502802322B1022324C102AF
:104390002328E10293058100130703001306F0FFB1
:1043A000130505ED232E1100232AF102232C01030E
:1043B000232E110323266100EFD09FB68320C10175
:1043C0001301010467800000130101FC1303810243
:1043D0002326D10293860500930505003715028038
:1043E0002324C1022328E1021306F0FF1307030070
:1043F00013058542232E1100232AF102232C0103E9
:10440000232E110323266100EFD09FB18320C10129
:104410001301010467800000130101FC1303C102B2
:104420002326D10293060600138605009305050096
:10443000371502802328E102130585421307030084
:10444000232E1100232AF102232C0103232E110312
:1044500023266100EFD0DFAC8320C10113010104EA
:1044600067800000130101FE9306050037250280D6
:10447000138705001306F0FF9305C100130505ED32
:10448000232E1100EFD0DFA98320C1011301010207
:104490006780000013870600930606001386050058
:1044A0009305050037150280130585426FD05FA77D
:1044B000130101FC1303C1022324A100371502805C
:1044C0002326D1022328E1022326B1009306060009
:1044D00093058100130703001306F0FF1305C5437E
:1044E000232E1100232AF102232C0103232E110372
:1044F00023226100EFD0DFA28320C1011301010458
:10450000678000009308000063DC05003305A040CD
:10451000B337A000B305B040B385F5409308F0FF72
:1045200063DA06003306C040B337C000B306D0409C
:10453000B386F640130806001383060093070500B0
:104540001387050063980624B7660280938646A306
:1045500063F8C50E370E0100637AC60D130EF00F17
:104560006374CE0013038000335E6600B386C60119
:1045700003CE0600330E6E00130300023303C34163
:10458000630C0300B3956500335EC5013318660004
:104590003367BE00B3176500935508013376B70241
:1045A000131508011355050193D607013357B702B8
:1045B00013160601B366D6003307E50263FAE60078
:1045C000B386060163E6060163F4E600B3860601DE
:1045D000B386E64033F7B6029397070193D70701F6
:1045E000B3D6B602B306D50213150701B367F500BB
:1045F00063FAD700B387070163E6070163F4D700C6
:10460000B3870701B387D74033D567009305000010
:10461000638C0800B307A0403337F000B305B04007
:1046200013850700B385E54067800000370E000161
:1046300013030001E36AC6F3130380016FF0DFF296
:10464000631606001308100033586802370701008C
:104650006372E80A1307F00F637407011303800005
:1046600033576800B386E60003CE0600330E6E00B3
:10467000130300023303C34163180308B3850541E4
:1046800093560801131508011355050113D60701A8
:1046900033F7D502B3D5D502131707013367C70027
:1046A000B305B502637AB7003307070163660701F4
:1046B0006374B70033070701B305B74033F7D5027A
:1046C0009397070193D70701B3D5D502B305B50278
:1046D00013150701B367F50063FAB700B387070145
:1046E00063E6070163F4B700B3870701B387B740F8
:1046F0006FF09FF13707000113030001E362E8F652
:10470000130380016FF0DFF533186800B3DEC501D5
:10471000B3176500335EC50113550801B3D6AE0269
:10472000B3956500336EBE009315080193D505015E
:1047300013560E0133F7AE02B386D50213170701E5
:104740003367C700637AD700330707016366070141
:104750006374D700330707013306D7403377A602C7
:10476000131E0E01135E0E013356A6021317070126
:104770003386C502B365C70163FAC500B385050179
:1047800063E6050163F4C500B3850501B385C54043
:104790006FF01FEFE3EED5E63708010063FC060576
:1047A000930EF00F33B8DE0013183800376E028016
:1047B000130E4EA333D306013303C301834E03000C
:1047C000130E0002B38E0E01330EDE41631E0E0285
:1047D00063E4B600636AC500B307C540B386D5403D
:1047E0003335F5003387A64013850700930507008E
:1047F0006FF01FE23703000113080001E3E866FAD7
:10480000130880016FF09FFA3357D601B396C601A3
:10481000B366D700B3D7D5013357D501B395C501DA
:104820003367B70093D5060133F3B702139F060130
:10483000135F0F01135807013316C6013315C50165
:10484000B3D7B7021313030133680301B30FFF0299
:1048500013830700637EF8013308D8001383F7FF42
:104860006368D8006376F8011383E7FF3308D80044
:104870003308F841B37FB8023358B802939F0F0151
:10488000B3050F03131F0701135F0F0133EFEF0190
:1048900013070800637EBF00330FDF001307F8FF24
:1048A0006368DF006376BF001307E8FF330FDF00A4
:1048B00013130301B70F01003363E3009387FFFF76
:1048C00013580601330FBF40B375F30013530301B0
:1048D000B377F6003387F502B307F302B385050318
:1048E00033030303B385F500135807013308B800F9
:1048F0006374F8003303F301B70701009387F7FFF0
:10490000935508013378F800131808013377F7003E
:10491000B38565003307E8006366BF00631EBF0010
:10492000637CE5003306C7403337C700B385D54005
:10493000B385E540130706003307E5403335E5004E
:10494000B305BF40B385A540B397D5013357C70121
:1049500033E5E700B3D5C5016FF09FCB9387050022
:1049600013080600938806001303050063960628C3
:1049700037670280130747A363F6C50EB706010029
:104980006378D60C9306F00FB3B6C6009396360044
:10499000B358D6003307170103470700B306D70003
:1049A000130700023307D740630C0700B397E700F3
:1049B000B356D5003318E600B3E5F6003313E5002F
:1049C00013550801B3D7A5021316080113560601A3
:1049D0009356030133F7A502B305F6021317070137
:1049E000B366D7001387070063FEB600B3860601DF
:1049F0001387F7FF63E8060163F6B6001387E7FF46
:104A0000B3860601B386B640B3F7A60213130301BB
:104A100013530301B3D6A6029397070133E367004C
:104A2000B305D60213850600637CB3003303680028
:104A30001385F6FF636603016374B3001385E6FF15
:104A4000131707013367A700930500006F00400E9E
:104A5000B708000193060001E36C16F3930680018A
:104A60006FF01FF3631606009306100033D8C602DA
:104A7000B70601006372D80C9306F00F63F40601C9
:104A800093088000B35618013307D7008346070008
:104A900013070002B38616013307D7406318070ACD
:104AA000B3870741930510001356080193180801B6
:104AB00093D808019356030133F7C702B3D7C7024F
:104AC00013170701B366D7003385F8021387070071
:104AD00063FEA600B38606011387F7FF63E80601AD
:104AE00063F6A6001387E7FFB3860601B386A640E8
:104AF000B3F7C6021313030113530301B3D6C6025F
:104B00009397070133E36700B388D8021385060043
:104B1000637C1301330368001385F6FF63660301AA
:104B2000637413011385E6FF131707013367A700AA
:104B30001305070067800000B70600019308000115
:104B4000E362D8F4930880016FF0DFF33318E800D4
:104B5000B3D5D7003313E500B356D500135508017C
:104B6000B397E70033F7A502B3E8F60093170801FF
:104B700093D7070113D60801B3D5A5021317070170
:104B80003367C700B386B70213860500637ED7007C
:104B9000330707011386F5FF636807016376D700C3
:104BA0001386E5FF33070701B306D74033F7A602A4
:104BB0009398080193D80801B3D6A60213170701EA
:104BC000B385D702B36717011387060063FEB700EA
:104BD000B38707011387F6FF63E8070163F6B700A1
:104BE0001387E6FFB3870701B387B7409315060124
:104BF000B3E5E5006FF05FEB63E6D518370701001A
:104C000063F4E6041308F00F3337D80013173700A6
:104C100037680280130848A3B3D5E600B3850501C1
:104C200003C80500930500023308E800B385054179
:104C30006396050213071000E3ECF6EE3335C5006A
:104C4000134715006FF0DFEEB705000113070001F1
:104C5000E3E0B6FC130780016FF09FFB33570601BA
:104C6000B396B600B366D70093DE060133D70701CB
:104C7000B378D703B397B700335805013363F8000F
:104C80009397060193D70701135803013316B60013
:104C90003357D7039398080133E80801338FE702AD
:104CA000130E0700637EE8013308D800130EF7FFE8
:104CB0006368D8006376E801130EE7FF3308D80075
:104CC0003308E841B378D8033358D80393980801E0
:104CD000B38E07039317030193D70701B3E7F800D7
:104CE0001307080063FED701B387D7001307F8FF47
:104CF00063E8D70063F6D7011307E8FFB387D7004F
:104D0000131E0E01B387D741B70E01003367EE00C3
:104D10001388FEFF337307019358070133780601A8
:104D200013560601330E03033388080393560E010E
:104D30003303C30233030301B3866600B388C8029A
:104D400063F40601B388D80113D60601B30816012F
:104D500063E61703E39A17CFB70701009387F7FFBE
:104D6000B3F6F60093960601337EFE003315B500C8
:104D7000B386C60193050000E37CD5DA1307F7FF7D
:104D80006FF09FCC93050000130700006FF05FDA0F
:104D90009308060013870600930705001388050093
:104DA000639C0622B7660280938646A363FCC50C0B
:104DB00037030100637E660A1303F00F6374C300B8
:104DC000130780003353E600B386660003CE060067
:104DD00013030002330EEE003303C341630C0300E0
:104DE000B3956500335EC501B31866003368BE0035
:104DF000B317650013D608013377C802139508016D
:104E00001355050193D607013358C802131707013C
:104E1000B366D7003308050363FA0601B3861601AB
:104E200063E6160163F40601B3861601B3860641F4
:104E300033F7C6029397070193D70701B3D6C6028B
:104E4000B306D50213150701B367F50063FAD7005F
:104E5000B387170163E6170163F4D700B38717011F
:104E6000B387D74033D56700930500006780000003
:104E70003703000113070001E36666F4130780019E
:104E80006FF05FF46316060013061000B3581603A4
:104E90003706010063F2C80A1306F00F63741601A7
:104EA0001307800033D6E800B386C60003CE0600A1
:104EB00013030002330EEE003303C34163180308EB
:104EC000B385154113D70801139508011355050142
:104ED00013D60701B3F6E502B3D5E50293960601B2
:104EE000B3E6C600B305B50263FAB600B386160191
:104EF00063E6160163F4B600B3861601B385B640C7
:104F0000B3F6E5029397070193D70701B3D5E502FE
:104F1000B305B50213950601B367F50063FAB70050
:104F2000B387170163E6170163F4B700B38717016E
:104F3000B387B7406FF01FF3370600011307000176
:104F4000E3E2C8F6130780016FF0DFF5B39868005D
:104F500033D7C501B3176500335EC50113D508010A
:104F6000B376A702B3956500336EBE009395080132
:104F700093D5050113560E013357A70293960601E8
:104F8000B3E6C6003387E50263FAE600B38616018E
:104F900063E6160163F4E600B38616013386E64045
:104FA000B376A602131E0E01135E0E013356A6023F
:104FB000939606013386C502B3E5C60163FAC500C0
:104FC000B385150163E6150163F4C500B3851501CA
:104FD000B385C5406FF01FEFE3EAD5E8370701005E
:104FE00063FCE604930EF00F33B7DE0013173700AF
:104FF00037630280B3D8E600130343A3B388680085
:1050000083CE0800130E0002B38EEE00330EDE4195
:10501000631E0E0263E4B600636AC500B307C540B1
:10502000B385D5403335F5003388A5401385070097
:10503000930508006FF09FE3B70800011307000114
:10504000E3E816FB130780016FF09FFA3357D60190
:10505000B396C601B366D700B357D50133D7D50190
:10506000B395C501B3E7B70093D506013373B70213
:10507000139F0601135F0F0193D807013316C60172
:105080003315C5013357B70213130301B368130176
:105090003308EF021303070063FE0801B388D8004A
:1050A0001303F7FF63E8D80063F608011303E7FF73
:1050B000B388D800B3880841B3FFB802B3D8B802A8
:1050C000939F0F01B3051F03139F0701135F0F0188
:1050D00033EFEF0113870800637EBF00330FDF005B
:1050E0001387F8FF6368DF006376BF001387E8FF6C
:1050F000330FDF0013130301B70801003363E3002C
:105100009387F8FF13580601330FBF40B375F300C0
:1051100013530301B377F6003387F502B307F302A5
:10512000B385050333030303B385F5001358070163
:105130003308B8006374F80033031301B7070100A4
:105140009387F7FF935508013378F8001318080187
:105150003377F700B38565003307E8006366BF0067
:10516000631EBF00637CE5003306C7403337C700CA
:10517000B385D540B385E540130706003307E54006
:105180003335E500B305BF40B385A540B397D501DE
:105190003357C70133E5E700B3D5C5016FF01FCD25
:1051A0000346050083C60500130515009385150009
:1051B0006314D600E31606FE3305D6406780000070
:1051C0004448525953544F4E452050524F47524134
:1051D0004D2C20534F4D4520535452494E4700000B
:1051E000432C2056657273696F6E20322E32000098
:1051F0004468727973746F6E652042656E63686D82
:1052000061726B2C2056657273696F6E2025730A6C
:105210000000000050726F6772616D20636F6D70E7
:10522000696C6564207769746820277265676973A3
:1052300074657227206174747269627574650A00FE
:1052400050726F6772616D20636F6D70696C656419
:1052500020776974686F7574202772656769737445
:10526000657227206174747269627574650A000042
:1052700072646379636C6528290000005573696E58
:10528000672025732C20485A3D25640A0000000041
:10529000547279696E672025642072756E7320746C
:1052A00068726F756768204468727973746F6E6591
:1052B0003A0A00004D656173757265642074696D0A
:1052C0006520746F6F20736D616C6C20746F206F3C
:1052D000627461696E206D65616E696E6766756C7A
:1052E00020726573756C74730A00000046696E6104
:1052F0006C2076616C756573206F6620746865201C
:105300007661726961626C6573207573656420698A
:105310006E207468652062656E63686D61726B3AB9
:105320000A000000496E745F476C6F623A202020CB
:1053300020202020202020202025640A00000000BA
:10534000202020202020202073686F756C6420624C
:10535000653A20202025640A00000000426F6F6C2F
:105360005F476C6F623A20202020202020202020E0
:105370002025640A0000000043685F315F476C6FBE
:10538000623A202020202020202020202025630A8F
:1053900000000000202020202020202073686F754E
:1053A0006C642062653A20202025630A000000001A
:1053B00043685F325F476C6F623A202020202020D4
:1053C000202020202025630A000000004172725F27
:1053D000315F476C6F625B385D3A202020202020CF
:1053E0002025640A000000004172725F325F476C42
:1053F0006F625B385D5B375D3A2020202025640AB0
:1054000000000000202020202020202073686F75DD
:105410006C642062653A2020204E756D6265725F73
:105420004F665F52756E73202B2031300A000000EA
:105430005074725F476C6F622D3E0A0020205074DA
:10544000725F436F6D703A202020202020202020A2
:105450002025640A00000000202020202020202099
:1054600073686F756C642062653A20202028696D2E
:10547000706C656D656E746174696F6E2D646570B6
:10548000656E64656E74290A00000000202044697E
:105490007363723A2020202020202020202020200A
:1054A0002025640A000000002020456E756D5F43D2
:1054B0006F6D703A20202020202020202025640AB3
:1054C000000000002020496E745F436F6D703A2029
:1054D00020202020202020202025640A0000000019
:1054E00020205374725F436F6D703A20202020207B
:1054F000202020202025730A0000000020202020EA
:105500002020202073686F756C642062653A20202B
:10551000204448525953544F4E452050524F475201
:10552000414D2C20534F4D4520535452494E470A6C
:10553000000000004E6578745F5074725F476C6FB6
:10554000622D3E0A00000000202020202020202084
:1055500073686F756C642062653A20202028696D3D
:10556000706C656D656E746174696F6E2D646570C5
:10557000656E64656E74292C2073616D652061739E
:105580002061626F76650A00496E745F315F4C6F0F
:10559000633A202020202020202020202025640A7B
:1055A00000000000496E745F325F4C6F633A202048
:1055B00020202020202020202025640A0000000038
:1055C000496E745F335F4C6F633A202020202020A7
:1055D000202020202025640A00000000456E756D03
:1055E0005F4C6F633A2020202020202020202020A4
:1055F0002025640A000000005374725F315F4C6F15
:10560000633A202020202020202020202025730AFB
:1056100000000000202020202020202073686F75CB
:105620006C642062653A2020204448525953544FFC
:105630004E452050524F4752414D2C203127535454
:1056400020535452494E470A000000005374725FC1
:10565000325F4C6F633A2020202020202020202021
:105660002025730A00000000202020202020202078
:1056700073686F756C642062653A2020204448523C
:105680005953544F4E452050524F4752414D2C20B4
:1056900032274E4420535452494E470A000000001E
:1056A0004D6963726F7365636F6E647320666F72AA
:1056B000206F6E652072756E207468726F756768F2
:1056C000204468727973746F6E653A20256C6C752E
:1056D0000A0000004468727973746F6E65732070FD
:1056E0006572205365636F6E643A2020202020206D
:1056F00020202020202020202020202020202020AA
:10570000256C6C750A000000444D4950532F4D48DC
:105710007A3A20256C6C752E2530366C6C750A0033
:10572000546F74616C207469636B73202020202097
:10573000203A20256C6C750A00000000546F7461DB
:105740006C207469636B73202868657829203A207F
:1057500025303878253038780A000000546F74619D
:105760006C20696E7374726574732028686578297B
:10577000203A2025303878253038780A000000009B
:10578000546F74616C206272616E63687320286864
:10579000657829203A2025303878253038780A0075
:1057A000546F74616C206272616E63682068697402
:1057B00073202868657829203A20253038782530EC
:1057C00038780A00495043203A2025752E25303676
:1057D000750A00004272616E636820486974205245
:1057E000617465203A2025752E2530367525250AE9
:1057F000000000004448525953544F4E4520505227
:105800004F4752414D2C2031275354205354524975
:105810004E4700004448525953544F4E4520505271
:105820004F4752414D2C2032274E44205354524969
:105830004E4700004448525953544F4E4520505251
:105840004F4752414D2C2033275244205354524944
:105850004E470000E82002807420028074200280FD
:10586000DC20028074200280742002807420028078
:1058700074200280742002807420028074200280D0
:10588000C420028074200280D02002807420028014
:105890007420028054200280B42902801C2D0280D2
:1058A000A42902801C2D0280882902801C2D0280E0
:1058B0001C2D02801C2D02801C2D02801C2D0280BC
:1058C0001C2D02801C2D0280002102801C2D0280D4
:1058D0001C2D02801C2D02801C2D02801C2D02809C
:1058E000002102806C290280AC1F0280AC1F028064
:1058F000AC1F0280AC1F0280AC1F0280AC1F028074
:10590000AC1F0280AC1F0280AC1F0280AC1F028063
:10591000AC1F0280AC1F0280AC1F0280AC1F028053
:10592000AC1F0280AC1F0280AC1F0280AC1F028043
:10593000AC1F0280AC1F0280AC1F0280AC1F028033
:10594000AC1F0280AC1F0280AC1F0280AC1F028023
:10595000AC1F0280AC1F0280AC1F0280AC1F028013
:10596000AC1F0280AC1F0280AC1F0280AC1F028003
:10597000AC1F0280AC1F0280AC1F0280AC1F0280F3
:10598000AC1F0280AC1F0280AC1F0280AC1F0280E3
:10599000AC1F0280AC1F0280AC1F0280AC1F0280D3
:1059A000AC1F0280AC1F0280AC1F0280AC1F0280C3
:1059B000F8260280AC1F0280AC1F0280AC1F028060
:1059C000AC1F0280AC1F0280AC1F0280AC1F0280A3
:1059D000AC1F0280AC1F0280F826028020250280C6
:1059E000F8260280AC1F0280AC1F0280AC1F028030
:1059F000AC1F0280F8260280AC1F0280AC1F028020
:105A0000AC1F0280AC1F0280AC1F0280F82602800F
:105A100084230280AC1F0280AC1F028030210280F0
:105A2000AC1F0280F8260280AC1F0280AC1F0280EF
:105A3000F8260280000102020303030304040404A5
:105A4000040404040505050505050505050505050A
:105A500005050505060606060606060606060606EA
:105A600006060606060606060606060606060606D6
:105A700006060606070707070707070707070707BA
:105A800007070707070707070707070707070707A6
:105A90000707070707070707070707070707070796
:105AA0000707070707070707070707070707070786
:105AB000070707070808080808080808080808086A
:105AC0000808080808080808080808080808080856
:105AD0000808080808080808080808080808080846
