:10000000731020B0731020B893000000130100009B
:10001000930100001302000093020000130300008C
:100020009303000013040000930400001305000074
:10003000930500001306000093060000130700005C
:100040009307000013080000930800001309000044
:1000500093090000130A0000930A0000130B00002C
:10006000930B0000130C0000930C0000130D000014
:10007000930D0000130E0000930E0000130F0000FC
:10008000930F000097F10000938101841771010024
:10009000130101869382C180177301001303438506
:1000A00023A0020093824200E3CC62FE732540F15C
:1000B000930510006370B500130500009305000060
:1000C000EF0040020F00F00F73D040806F0000007F
:1000D00073100581F322008193D2F201E39C02FEAA
:1000E0006780000037E50280130101F613050581E2
:1000F000232C8108232A910823282109232631094A
:10010000232E1108232441092322510923206109A8
:10011000232E7107232C8107232A91072328A10767
:100120002326B107EFC0403D03A6418583A5018585
:1001300083A3818037E702808326870C931406010E
:100140001398030183A9C18413D60441935808412D
:1001500013091000230F2105231EC100231FB10026
:1001600023101103232CD10263940900930970001A
:100170008320C101232E3103638400006F10002807
:10018000639408006F108026032AC10337ED0280B4
:10019000930DCD1113772A00137E1A00333FE00030
:1001A0002322B103231E0104937F4A00B305EE010D
:1001B00063880F00138515009312050193D5020182
:1001C0001303007D3355B30293040000232AA102D8
:1001D00063040E006F10401F630407006F10801C43
:1001E00063840F006F10801A631A0E406314074275
:1001F00093704A00638A0000032601038315C1013E
:1002000003254103EF50403B832A8103E3880A3AE8
:10021000130DC101732C00B8732700B0F32000B890
:10022000630A1C06732C00B8732700B0F32A00B8C9
:1002300063025C07732C00B8732700B0732300B807
:10024000630A6C04732C00B8732700B0F32B00B85A
:1002500063027C05732C00B8732700B0732600B8C6
:10026000630ACC02732C00B8732700B0F32800B8DF
:1002700063021C03732C00B8732700B0732400B80A
:10028000630A8C00732C00B8732700B0732E00B87B
:10029000E312CCF923AAE18023AC8181F32720B8B3
:1002A000732A20B0F32E20B8638AD707F32720B82B
:1002B000732A20B0732520B86382A706F32720B8DD
:1002C000732A20B0732F20B8638AE705F32720B87C
:1002D000732A20B0F32F20B86382F705F32720B8E4
:1002E000732A20B0F32220B8638A5702F32720B87C
:1002F000732A20B0F32520B86382B702F32720B811
:10030000732A20B0F32320B8638A7700F32720B83C
:10031000732A20B0F32620B8E392D7F823A24185B0
:1003200023A4F184EF90C01513050D00EF70107C2D
:10033000EF908024F32A20B8732320B0732D20B8C7
:10034000638AAA07F32A20B8732320B0F32420B8C5
:1003500063829A06F32A20B8732320B0F32C20B8C6
:10036000638A9A05F32A20B8732320B0732920B832
:1003700063822A05F32A20B8732320B0F32920B81A
:10038000638A3A03F32A20B8732320B0732820B875
:1003900063820A03F32A20B8732320B0F32020B825
:1003A000638A1A00F32A20B8732320B0732620B87A
:1003B000E392CAF823AE618223A05185F32200B8EC
:1003C000732700B0F32800B8638A1207F32200B83D
:1003D000732700B0732400B863828206F32200B84A
:1003E000732700B0732E00B8638AC205F32200B8E9
:1003F000732700B0F32E00B86382D205F32200B851
:10040000732700B0732500B8638AA202F32200B8F4
:10041000732700B0732F00B86382E203F32200B8A1
:10042000732700B0F32F00B8638AF201F32200B8FB
:10043000732700B0F32500B8E392B2F883A341819B
:1004400003AB81810355C101B3047740B3379700F3
:10045000338A62419305000023A6E18023A85180DE
:100460003309FA40EF80004C930505000355E10184
:10047000B78C000093895CB0EF80C04A93050500FB
:1004800003550102EF80004A832D410393050500C7
:1004900093960D0113D50601EF80C0482326A100D5
:1004A000130D0500631435016F00507A63F8A91825
:1004B00037940000930024A0631415006F00D07BD4
:1004C00037F50000130F559FE314ED0FB7EF0280CF
:1004D00013850F8DEFC04002B7220000138B72FD11
:1004E00037E700009309A4E3930C0B00930A4771CC
:1004F00037EA028003234A0C13040000130D0000A6
:10050000631803026F00401AB30FAF0003D8CFFF88
:10051000130D1D0083274A0C3304880013130D01AB
:1005200093100401135D030113D40041637EFD1693
:10053000931D4D00B380AD01139620009308010672
:10054000338EC800832ECEFD231E0EFE13F51E0033
:10055000630A050203566EFF2324C1016304560398
:1005600037EF028093860A0093050D001305CF92A2
:10057000EFB09078832F810083D2CFFF13871200D2
:10058000239EEFFEB385AD019393250093070106EB
:10059000338877008326C8FD13F32600630C03021B
:1005A000035688FF2324010163069603B7E0028007
:1005B00093060B0093050D001385C095EFB0D07323
:1005C0008328810003D6C8FF83A6C8FD130E16003A
:1005D000239EC8FFB38DAD0193FE460013952D00F9
:1005E000130F0106E3820EF2B30DAF0003D6ADFF89
:1005F0006316360903D8CDFF6FF09FF18325810282
:10060000EF00D073032AC1032320A10413772A002B
:10061000E30007BE8317E1010316C1018325C10270
:1006200003254103939907019306410433E6C9006A
:10063000EF305042032AC1036FF09FBBB725000083
:100640009383258FE3007566375400009306F4EA20
:100650006310D57637ED02801305CD89EFB0D069F0
:10066000130B8460B7ED00003778000093894D5A72
:10067000930C0B00930A98A76FF09FE7B7E20280F4
:1006800093050D009386090013850299EFB0D0669B
:1006900003D7CDFF930517009393050113D80301EA
:1006A000239E0DFF6FF0DFE6832D410383A20182BD
:1006B00083AEC18103AF418303AEC18283A6C183F0
:1006C00083A5818283AC418403AB418283AF818463
:1006D00003A5818383AB018303AC0184B380B24063
:1006E000338B6E41330DEE41B38C964193850D00F3
:1006F000B7ED0280B3B76E013337AE013383AB4041
:10070000B3B396013308FC4113850D9CB38AF040C6
:10071000B30BE340330C7840B7E90280EFB0D05D13
:1007200093060900138604001385899DEFB0D05C01
:10073000B7E802801385489F1386040093050900DB
:10074000EFB0905BB7E60280138546A113860C00DC
:1007500093050C00EFB0505A37EE028013058EA3BC
:1007600013060D0093850B00EFB01059B7EE028011
:1007700013858EA513060B0093850A00EFB0D057A2
:1007800037460F0093090624330F3C0313860400F9
:1007900093060900B3BF3C0333853C03B305FF0157
:1007A000EFC0007CB7420F001386022493060000BE
:1007B000EFC0503E93060900930D05001386040018
:1007C00013850C0093050C00EFC08079930505009C
:1007D00037E5028013860D001305C5A7EFB0D05191
:1007E000B7D59A3B938C05A033389B0313060D00B5
:1007F00093860B00B3839A0333059B03B3850301F0
:10080000EFC0007637470F00130607249306000059
:10081000EFC0503813034006B307530313060D000F
:10082000130C050093860B00B79A9800333D6303C1
:1008300033056303B385A70137EB0280EFC0407235
:1008400013060C00930505001305CBA8EFB0D04AA2
:10085000B3B8340313860A689306000037EB0280AE
:10086000B7EA0280B30B390333853403B3851B0128
:10087000B7EB0280EFC0C06EB37D3503B79698002A
:10088000138606681385040093060000930509008B
:10089000EFC0006D37EE0280930505001305CEAA68
:1008A00013860D00EFB05045832C4A0C032C8103B6
:1008B00013860400B38E3C0393060900B7ED028053
:1008C000338F8E03B3BF8E03B3323F03B3853F0331
:1008D00033053F03B3855500EFC0806837460F00EE
:1008E0001306062493060000EFC0D02A13860400E6
:1008F000130D0500B3B48C039306090033858C03F4
:10090000B38334033339350333053503B38523010A
:10091000B7E90280EFC0C06413060D00930505001F
:10092000138589ACEFB0503D03284A0C03238103A3
:1009300037E70280130547AEB3050303EFB0D03BA2
:10094000B7E702809385C7AF13058BB0EFB0D03AFD
:1009500093850BB213854AB2EFB0103AB7E8028024
:100960009385C8B313854DB4EFB010398325C1000A
:10097000B7E602801385C6B5EFB01038032BC1036C
:10098000137E1B00630C0E0E83204A0C6388000E3E
:1009900093090000B7EC0280139C4900B30E3C01A0
:1009A000139F2E00930F0106B382EF0103D662FF5F
:1009B0009385090013858CB7EFB010349385190027
:1009C000139D050193540D011399440003264A0C0D
:1009D000B3039900939923001308010613858CB77C
:1009E000330738019385040063F8C408035667FF92
:1009F000EFB0903093871400139B0701935B0B01BA
:100A0000939A4B0003234A0CB3887A01939D2800E4
:100A10009306010613858CB7338EB60193850B00C0
:100A200063FC6B0403566EFFEFB0102D938E1B001A
:100A3000139F0E01135D0F01931F4D00032C4A0CF1
:100A4000B382AF019305010613962200B384C5005B
:100A500013858CB793050D0063708D0303D664FF77
:100A600013091D00EFB0502903254A0C9313090107
:100A700093D90301E3E2A9F2032BC10393702B0086
:100A8000638C000E832C4A0CE38C0C1A130D0000AF
:100A900037EB028013174D003303A7019317230090
:100AA000930B0106B38AFB0003D68AFF93050D0062
:100AB00013054BB9EFB05024930D1D0093960D0113
:100AC00013DC0601131E4C0083284A0CB30E8E0162
:100AD000139F2E00130D010613054BB9B30FED0143
:100AE00093050C0063781C0903D68FFF930C010655
:100AF000EFB0902013061C009315060193D4050156
:100B00001399440083224A0CB3039900939923005C
:100B100013054BB933883C019385040063FC5404EE
:100B2000035688FFEFB0501D138314009317030181
:100B300093DB0701939A4B0003274A0CB3887A0191
:100B4000939D28009306010613054BB9338CB6011B
:100B500093850B0063F0EB0203568CFFEFB0D019C6
:100B6000138E1B0003254A0C931E0E0113DD0E018C
:100B7000E362ADF2032BC10393704B00638A000E56
:100B8000032F4A0C630E0F1C930A000037E9028002
:100B9000939F4A00B3825F011396220093050106DA
:100BA000B383C50003D6A3FF93841A0093850A007C
:100BB000130509BB939C0401EFB0101493DB0C01E7
:100BC00013984B0083294A0C33077801131327002D
:100BD00093070106130509BBB38A670093850B00D1
:100BE00063F83B0903D6AAFF938D1B00130B010684
:100BF000EFB0901093960D0113DC0601131E4C000C
:100C000083284A0CB30E8E01139D2E00130509BBD9
:100C1000330FAB0193050C00637C1C050356AFFF3B
:100C2000930C0106EFB0500D93021C0013960201C5
:100C30009359060193954900832F4A0CB3833501DC
:100C400093942300130509BBB38B9C009385090083
:100C500063F0F90303D6ABFFEFB0100A1388190055
:100C600003254A0C13170801935A0701E3E2AAF27D
:100C700083204A0C9309000037E902806382000E4A
:100C800013934900B307330193982700930D01068E
:100C9000B3861D0103D646FF938509001305C9BC21
:100CA000EFB09005138E1900931E0E0113DD0E0197
:100CB000131B4D00032C4A0C330FAB01931F2F0065
:100CC000930201061305C9BC3386F20193050D009A
:100CD00063788D09035646FFEFB0100293051D009F
:100CE0009393050193D40301939C440083294A0CF8
:100CF000B38B9C0013982B00130701061305C9BC86
:100D0000B30A07019385040063FC340503D64AFF48
:100D1000EFB0807E938714009398070193DD08015C
:100D200093964D0003234A0C338CB601131E2C00FE
:100D3000930E01061305C9BC338DCE0193850D00BA
:100D400063F06D0203564DFF138B1D00EFB0C07AA8
:100D500003254A0C131F0B0193590F01E3E2A9F27B
:100D60006308046C635C806637E40280130544C347
:100D7000EFB080788320C1090324810983244109CD
:100D8000032901098329C108032A8108832A41080C
:100D9000032B0108832BC107032C8107832C4107F8
:100DA000032D0107832DC1061301010A678000008E
:100DB0001304F0FF37EA02806FF05F8FB7ABFFFFDD
:100DC000379E9800130C1000130DC101938C1B006B
:100DD00013090E6893090000931E2C00338C8E01BA
:100DE000131C1C00232C8103F32400B8732A00B0C9
:100DF000732F00B8638AE407F32400B8732A00B0A5
:100E0000F32F00B86382F407F32400B8732A00B00C
:100E1000732500B8638AA404F32400B8732A00B0D1
:100E2000F32200B863825404F32400B8732A00B09C
:100E3000F32500B8638AB402F32400B8732A00B023
:100E4000732300B863826402F32400B8732A00B0ED
:100E5000F32300B8638A7400F32400B8732A00B047
:100E6000F32600B8E392D4F823AA418123AC918001
:100E7000232A0104232C01041304000063020C4400
:100E80009305100013050D00EF60D01303584105C2
:100E90009378F50F13D71800B347A80013F617007F
:100EA000935B180063080600B3C09B01939A00018E
:100EB00093DB0A0133CEEB00937E1E0013DF280084
:100EC00093D51B0063880E00B3CF950193920F0159
:100ED00093D5020133C3E5019373130093D6380011
:100EE00093D715006388030033C8970113170801CF
:100EF0009357070133C6D7009370160093DA480062
:100F000093DE170063880000B3CB9E01139E0B0194
:100F1000935E0E0133CF5E01937F1F0093D2580082
:100F200093D31E0063880F00B3C59301139305018B
:100F300093530301B3C6530013F8160013D7680088
:100F400093D0130063080800B3C7900113960701FC
:100F500093500601B3CAE00093FB1A0093D87800BF
:100F600013DF100063880B00334E9F01931E0E01A8
:100F700013DF0E01937F1F0013531F0063881F01AF
:100F8000B34293019395020113D3050113558500D4
:100F90009313050193D603013348D30013F6F60FDC
:100FA0001377180093501600935B13006308070033
:100FB000B3C79B01939A070193DB0A01B3C81B00D7
:100FC00013FE1800935E260093D21B0063080E00E8
:100FD00033CF9201931F0F0193D20F01B3C5D201FA
:100FE00013F315001355360013D8120063080300DD
:100FF000B34398019396030113D806013347A80021
:1010000093701700935A46009358180063880000A5
:10101000B3C79801939B070193D80B0133CE5801B6
:10102000937E1E00135F560093D5180063880E0050
:10103000B3CF950193920F0193D5020133C3E5011C
:10104000137513009353660093D0150063080500D1
:10105000B3C69001139806019350080133C770007E
:10106000937A17001356760093D8100063880A000D
:10107000B3C79801939B070193D80B0113FE180087
:1010800093DF18006308CE00B3CE9F01139F0E01BB
:10109000935F0F019305F0FF13050D00231AF1056F
:1010A000EF604072835241051373F50F93531300A1
:1010B000B3C5A20093F6150013D71200638806008B
:1010C000334897019310080113D70001B34A770002
:1010D00013F61A00935B2300135E170063080600E3
:1010E000B3479E019398070113DE0801B34E7E01BA
:1010F00013FF1E00935F330093551E0063080F001B
:10110000B3C295019393020193D50301B3C6F501D0
:1011100013F816009350430093DB15006308080092
:1011200033C79B01931A070193DB0A0133C61B00E7
:1011300093781600135E530013DF1B0063880800CA
:10114000B3479F01939E070113DF0E01B34FCF01F9
:1011500093F21F009353630013581F00638802002B
:10116000B34598019396050113D80601B340780062
:1011700093FA1000135373001356180063880A0083
:1011800033479601931B070113D60B019378160082
:10119000935E16006388680033CE9E0193170E019C
:1011A00093DE070113558500131F0501935F0F019F
:1011B000B3C2DF0193F3FF0F93F5120093D6130030
:1011C00093DA1E006388050033C89A019310080162
:1011D00093DA000133C35601937B130013D7230026
:1011E00013DE1A0063880B0033469E019318060134
:1011F00013DE0801B347EE0093FE170013D533004A
:1012000093521E0063880E0033CF9201931F0F018B
:1012100093D20F01B3C5A20093F6150013D8430073
:1012200013D3120063880600B3409301939A000120
:1012300013D30A01B34B030113F71B0013D653005A
:101240009357130063080700B3C89701139E080162
:1012500093570E01B3CEC70013F51E0013DF6300D2
:1012600093D5170063080500B3CF950193920F0142
:1012700093D50201B3C6E50113F8160093D37300AA
:1012800013D3150063080800B3409301939A00013B
:1012900013D30A01937B13009358130063887B00D8
:1012A00033C798011316070193580601231A110535
:1012B0006308040C13041400E3148CBC032C810396
:1012C000F32700B8F32300B0732E00B8638AC70772
:1012D000F32700B8F32300B0F32E00B86382D707DA
:1012E000F32700B8F32300B0732500B8638AA7047E
:1012F000F32700B8F32300B0732F00B86382E7052B
:10130000F32700B8F32300B0F32F00B8638AF70384
:10131000F32700B8F32300B0F32200B8638257022A
:10132000F32700B8F32300B0F32500B8638AB700B1
:10133000F32700B8F32300B0F32600B8E392D7F800
:101340003385434133BAA300B384974023A6718009
:101350001306090093860900B385444123A8F18050
:10136000EFB01040E30A05A6930CA00033D9AC02FD
:101370009309190033083C03232C01036FE09FE914
:10138000231B1105130410006FF09FAFB388A40254
:1013900033891D012328210363140E006FE01FE52C
:1013A0006FF0CFA5B383A4029386140013940601B3
:1013B0009354040133887D002326010363940F00B6
:1013C0006FE09FE26FF09FFC2324B10393041000B1
:1013D000631407006FE0DFE06FF0DFFC37EA0280A4
:1013E00013058AC4EFB040116FF0DF98930C6006CC
:1013F00023109103130600006FE01FD9130A100099
:10140000638440016FE05FD8638408006FE0DFD73A
:10141000B73A1534138B5A41930B6006373C0000E2
:10142000232E61012310710313065C416FE0DFD5A9
:10143000B7E00280138580BEEFB0000C6FF09F9381
:1014400013784B00E30608826FF09F91B7ED02809E
:1014500013850D87EFB0400A37180000B74A000027
:10146000130B9819373300009389FA9B930C0B00E8
:10147000930A03346FF0CF8737E6028013050684A2
:10148000EFB08007B7C80000138B28E5376E000067
:10149000B7DE000093097EE4930C0B00938A0E4B99
:1014A0006FF00F8537EB028013050B90EFB0C0048F
:1014B000B797000037EA0000938947D8130B707480
:1014C000930C7074930A1A3C6FF08F82630A0600C3
:1014D00003152500839525003305B540678000007E
:1014E00083170500139707019352070113F307F0C1
:1014F00093D38200336673002310C50083960500E2
:1015000003152500139806019358080113FE06F0F1
:1015100093DE8800336FDE012390E501839525007B
:101520003305B540678000000397050083972500C9
:101530002310E5002311F5006780000093074001A8
:101540003355F5023788FFFF23A0050093060808EE
:1015500013870501938785001305E5FF9318350070
:10156000B388150123A21501131E2500239108003D
:101570002390D800338EC80113834800637C175131
:101580009386880063F8C65123A4050023A0F500C4
:1015900023A665009342F8FF9303F0FF239278009F
:1015A0002393580063060528131F0601B78EFFFF1B
:1015B00013733500135F0F011308000093CEFEFF75
:1015C00063060310930F10006304F30B93022000D3
:1015D000630453049303870063FE130313834600DD
:1015E000637AC30313183F002320F700937788071B
:1015F00023A0E500939F87002322D700B3E2FF00DA
:10160000239056002391D601930707009306030009
:1016100013870300130810009302870063F8120574
:101620009383460063F4C30513130801935F03011A
:1016300033C3EF01131333001373830793FF7F004A
:101640002320F700B367F30123A0E500139387007D
:101650002322D700B36FF3002390F6012391D60124
:1016600093070700938603001387020013081800EE
:101670009302870063F812059383460063F4C30561
:1016800013130801935F030133C3EF0113133300F6
:101690001373830793FF7F002320F700B367F301E1
:1016A00023A0E500139387002322D700B36FF30034
:1016B0002390F6012391D601930707009386030038
:1016C00013870200130818006304051793028700AC
:1016D00063F812059383460063F4C30513130801EE
:1016E000935F030133C3EF011313330013738307B5
:1016F00093FF7F002320F700B367F30123A0E500E9
:10170000139387002322D700B36FF3002390F601D1
:101710002391D601930707009386030013870200E5
:10172000930287001308180063F81205938346009C
:1017300063F4C30513130801935F030133C3EF017F
:10174000131333001373830793FF7F002320F700E5
:10175000B367F30123A0E500139387002322D7008A
:10176000B36FF3002390F6012391D601930707008E
:101770009386030013870200930287001303180067
:1017800063F812059383460063F4C305931F0301B6
:1017900093DF0F0133C3EF01131333001373830778
:1017A00093FF7F002320F700B367F30123A0E50038
:1017B000139387002322D700B36FF3002390F60121
:1017C0002391D60193070700938603001387020035
:1017D000930287001303280063F8120593834600E1
:1017E00063F4C305931F030193DF0F0133C3EF01BC
:1017F000131333001373830793FF7F002320F70035
:10180000B367F30123A0E500139387002322D700D9
:10181000B36FF3002390F6012391D60193070700DD
:10182000938603001387020013083800E31005EBCA
:1018300083A80700638A0802130E5000335FC503B4
:101840003745000093061000930EF5FF83A2470072
:1018500063F2E62183A707002391D2009386160046
:1018600083A20700E39402FE930810009302100085
:10187000938605001305000093050000930F0000F8
:1018800013F67800938F1F0093870600130700005C
:1018900063060608130F1000630AE607930E200084
:1018A0006300D60713033000630666041308400084
:1018B000630C0603130E50006302C603930360001B
:1018C0006308760083A7060013071000638A070ADF
:1018D00083A70700130717006384070A83A707007D
:1018E00013071700638E070883A707001307170065
:1018F0006388070883A70700130717006382070898
:1019000083A7070013071700638C070683A7070048
:1019100013071700638607066304170783A70700EA
:101920001307170013060700638C070483A707003B
:10193000130717006386070483A707001307260011
:101940006380070483A7070013073600638A070232
:1019500083A70700130746006384070283A70700D5
:1019600013075600638E070083A70700130766005E
:101970006388070083A7070013077600E39E07F834
:10198000138606001388080093860700630C070679
:10199000630C0808638A0608832E460003AE4600DF
:1019A00083970E0083132E0003932E00139F0701CD
:1019B000135F0F01135F8F0093F707F0B3E7E701A1
:1019C0002390FE00031F0E0033037340931E0F018C
:1019D00093D30E0193770FF013DF8300B3EEE7018B
:1019E0002310DE0163526004138E060083A60600F6
:1019F0001308F8FF630405022320C50113050E0038
:101A0000E31807F8630A0802638A0602138E0600C9
:101A10001308F8FF83A60600E31005FE93050E00E9
:101A200013050E006FF0DFFD130E06001307F7FF1E
:101A3000032606006FF01FFCE39406E42320050054
:101A400063865F0493981800E39405E22320000066
:101A5000730010009393060113D3030183A70700BB
:101A6000930F130013978F0013780770B348C300C8
:101A7000336E180103A50700B373DE0123917200D2
:101A800093861600E31405DC6FF01FDE1385050056
:101A90006780000013870700930603009307000088
:101AA0006FF05FB0032806009308880063F6E8042F
:101AB00003A70600130347006370F30423201601F5
:101AC0008327050083920500039625002320F80054
:101AD000232005012322E80083A306001385430089
:101AE00023A0A60083254800130508002390550075
:101AF0002391C5006780000013080000130508004B
:101B000067800000832705000326450013070500B2
:101B100083A5470083A60700138507002322B7008B
:101B200023A2C7002320D70023A00700678000005E
:101B300003A645008326450003A705002322C50010
:101B400023A2D5002320E50023A0A5006780000084
:101B50000397250063480702630405020326450036
:101B600083162600639AE6006F00000503284500EF
:101B7000831828006386E80003250500E31805FEA6
:101B800067800000E30E05FE832745008392050071
:101B900003C30700631A53006F004002832345000C
:101BA00083C503006388550003250500E31805FE7F
:101BB0006FF01FFD678000006780000067800000F5
:101BC0006300050A83270500930800002320150100
:101BD000930605006386070803A7070023A0D70024
:101BE0001385070063000708832207002320F700FE
:101BF000130507006386020603A3020023A0E20088
:101C000013850200630E0304832303002320530083
:101C1000130503006386030483A5030023A0630068
:101C200013850300638E050203A8050023A0750039
:101C30001385050063060802032608002320B80068
:101C40001305080093080800630C0600130506003E
:101C5000832705002320150193060500E39E07F660
:101C6000678000006780000063060522130101FD04
:101C7000232A510123286101232671012324810194
:101C80002320A10123261102232481022322910271
:101C900023202103232E3101232C410123229101F2
:101CA000930A0500138B0500930B0600130C10001C
:101CB000130D1000138A0A00930C00009304000017
:101CC000930A000093777C00938C1C0013040A0095
:101CD000130900006386070813071000638AE706EC
:101CE0009300200063801706930230006386570438
:101CF00013034000638C67029303500063827702F2
:101D0000130560006388A70003240A00130910006C
:101D1000630A040A03240400130919006304040A73
:101D20000324040013091900630E040803240400AB
:101D30001309190063080408032404001309190097
:101D4000630204080324040013091900630C040649
:101D500003240400130919006306040663048907B9
:101D6000032404001309190093050900630C0404FB
:101D70000324040013091900630604040324040067
:101D8000138925006300040403240400138935002B
:101D9000630A040203240400138945006304040257
:101DA0000324040013895500630E04000324040077
:101DB0001389650063080400032404001389750077
:101DC000E31E04F893090C00630E0902638E0904F4
:101DD000630C04048325440003254A0013860B008A
:101DE000E7000B006352A004130604000324040060
:101DF0009389F9FF6384040223A0C40093040600BE
:101E0000E31609FC638A0902630C0402130604004A
:101E10009389F9FF03240400E39004FE930A06006B
:101E2000930406006FF0DFFD13060A001309F9FFA3
:101E3000032A0A006FF01FFC130A0400E31404E8ED
:101E400023A00400638AAC01131C1C00E3940AE67F
:101E500023200000730010008320C10203248102AC
:101E600013850A0083244102032901028329C10149
:101E7000032A8101832A4101032B0101832BC10025
:101E8000032C8100832C4100032D01001301010369
:101E9000678000002320000073001000130101FA86
:101EA000232A91042326310523206105B7F4FFFF7F
:101EB00093190701232E1104232C810423282105C3
:101EC0002324410523225105232E7103232C810352
:101ED000232A91032328A1032326B1032324B1003D
:101EE0002326C1002322D100130B0500B364970001
:101EF00093D90901631405006F2000099318150098
:101F0000B30FA040B3081601139E1F00938608006C
:101F100013060000939F2F003385C601B385A640AA
:101F20009380E5FF93D21000138312009373730024
:101F3000930705006384030A1308100063860309EE
:101F400013042000638A830613093000638E23057F
:101F5000130A400063824305930A500063865303CB
:101F6000930B6000638A7301035C050093072500EF
:101F7000B38C89012310950103DD070093872700A7
:101F8000B38EA901239FD7FF03DF070093872700A4
:101F9000B38DE901239FB7FF83D5070093872700FF
:101FA000B380B900239F17FE83D2070093872700D1
:101FB00033835900239F67FE83D30700938727004D
:101FC00033887900239F07FF03D4070093872700F6
:101FD00033898900239F27FF6386D70603DA07002A
:101FE00083DA270083DB470003DC670083DC87009C
:101FF00003DDA70083DDC70083D5E700B380490177
:10200000B3835901B3827901338F8901B38E99016A
:102010003383A9013388B9013384B90023901700B1
:1020200023917700239257002393E7012394D7014C
:10203000239567002396070123978700938707015D
:10204000E39ED7F893071600B306F5416306FB003D
:10205000138607006FF05FEC032F810033086041A7
:1020600093122B00930F000013152800338CC80126
:1020700033898841130AE9FF935A1A00938B1A0097
:1020800093FC7B0093060F0093070C0063820C0CFB
:10209000130D10006382AC0B930D20006384BC0908
:1020A000930530006386BC069300400063881C04DF
:1020B00093035000638A7C02930E6000638CDC0102
:1020C00003130C0093072C0093064F003304E30224
:1020D00023208F00039907009386460093872700EB
:1020E000330AE90223AE46FF839A0700938646002F
:1020F00093872700B38BEA0223AE76FF839C070009
:102100009386460093872700338DEC0223AEA6FF0B
:10211000839D07009386460093872700B385ED02D1
:1021200023AEB6FE83900700938646009387270070
:10213000B383E00223AE76FE839E070093864600BB
:10214000938727003383EE0223AE66FE6388F8068A
:10215000839B0700839A2700039A4700039967002F
:1021600003948700839CA700039DC700839DE7001D
:10217000B385EB029386060293870701B380EA02D8
:1021800023A0B6FEB303EA0223A216FEB30EE902B1
:1021900023A476FE3303E40223A6D6FFB38BEC021E
:1021A00023A866FEB30AED0223AA76FF338AED0266
:1021B00023AC56FF23AE46FFE39CF8F893871F003D
:1021C000330F5F00B308AC406306F601938F07003E
:1021D0006FF0DFE9032781009307000093080000F8
:1021E00033075700930B00009305000013183800C5
:1021F000330CE500B30687419382C6FF13DE22004D
:1022000013091E001374390013030C00630E04122B
:10221000930C100063029407130D20006308A403BD
:10222000832D0C00939F070193D00F01B38BBB014B
:1022300063D47421938BA000939A0B0193D70A4126
:10224000930B000013034C0093880D00032A030036
:102250009397070193D60701B38B4B0163D4741D89
:102260009388A6001399080193570941930B000026
:102270001303430093080A00832A03001394070101
:10228000935C0401B38B5B0163D074199383AC003E
:10229000939E030113DA0E01931B0A0193D70B419E
:1022A000930B00001303430093880A00631E670822
:1022B0006F000014B3A75801832C4300338FF6003E
:1022C00093120F0113D90241131D0901B30F940199
:1022D00013034300935D0D0163D6F40B938AAD00A5
:1022E00083264300139A0A01935B0A41930F00006F
:1022F00093970B01B382DF0013DF070163D6540A03
:10230000930CAF00832A8300139D0C0113540D41DD
:1023100093020000931D0401B38B520193DF0D0162
:1023200063D6740B138FAF0093120F0113DA0201FF
:10233000131E0A011303C30093570E41930B0000B1
:1023400093880A006306670A832A0300139A070129
:1023500093560A0133845B01E3DE84F4832C43004B
:10236000138EA60093180E0113D908411304000020
:10237000131D0901B30F940113034300935D0D0175
:10238000E3CEF4F5B3A09A01B3831D008326430086
:10239000939E030193DB0E4193970B01B382DF0001
:1023A00013DF0701E3CE54F433AEDC00B308CF01F2
:1023B000832A83001399080113540941931D0401D2
:1023C000B38B520193DF0D01E3CE74F5B3A0560138
:1023D000B3831F00939E030113DA0E0193160A01C3
:1023E0001303C30093D7064193880A00E31E67F4E2
:1023F0001389150033070C4193880A006308B6045B
:10240000930509006FF0DFDE33AD5801B38DAC01E9
:10241000939F0D0113DA0F0193100A0193D7004126
:102420006FF05FE833AF4801B382E601139E02010B
:1024300093570E416FF0DFE3B3A3B801B38E700082
:1024400013930E01935703416FF0DFDF93F51700ED
:10245000B7AC000013FCF70F3304B040138D1C0021
:10246000B37A8D00935D1C00B3CF5D0193FB1F0019
:1024700093578A0013572C0093DD1A00638C0B00CE
:10248000B7A0FFFF93831000B3CE7D00139A0E0117
:10249000935D0A01B346B70113FF1600935217006C
:1024A00013D81D00630C0F0037AEFFFF13031E008F
:1024B000B3486800139508011358050133465800C6
:1024C0001379160093552700935A1800630C0900DE
:1024D00037ACFFFF13041C00B3CC8A00139D0C0122
:1024E000935A0D01B3CDBA0093FF1D00935B3700E3
:1024F00013DF1A00638C0F00B7A0FFFF9383100057
:10250000B34E7F00139A0E01135F0A01B3C6EB01AD
:1025100093F21600135E470013561F00638C0200EF
:1025200037A3FFFF93081300334516011318050165
:10253000135608013349C601937519001357570004
:10254000935A1600638C050037ACFFFF13041C0080
:10255000B3CC8A00139D0C01935A0D0193FF1A000E
:1025600093DE1A00638CEF00B7ABFFFF93801B0074
:10257000B3CD1E0093930D0193DE030133CAD7013F
:10258000137F1A0093D6170013D51E00630C0F009B
:10259000B7A2FFFF138E12003343C5019318030146
:1025A00013D5080133C8A6001376180013D92700E5
:1025B000935C1500630C0600B7A5FFFF1387150099
:1025C00033CCEC0013140C01935C040133CD2C01CB
:1025D000937A1D0093DF370093DE1C00638C0A00A2
:1025E000B7ABFFFF93801B00B3CD1E0093930D018B
:1025F00093DE030133CADF01137F1A0093D2470031
:1026000013D51E00630C0F00B7A6FFFF138E160034
:102610003343C5019318030113D5080133C8A20041
:102620001376180013D95700935C1500630C06004D
:10263000B7A5FFFF1387150033CCEC0013140C0172
:10264000935C0401334D9901937A1D0093DF670079
:1026500093DE1C00638C0A00B7ABFFFF93801B0066
:10266000B3CD1E0093930D0193DE030133CADF0146
:10267000137F1A0093D7770093D81E00630C0F00C6
:10268000B7A2FFFF9386120033CED80013130E01BA
:102690009358030113F5180093DD18006304F50047
:1026A0006F10100C63140B006F10500D832A810003
:1026B000931C2B009305000013860C0013850A0061
:1026C000EF70C016032441008322C100131D1B00BC
:1026D00013850A00B3859A01B3038D002328910066
:1026E000B3848340938FE4FF93DB1F0093801B0030
:1026F00093FE700093060400138602009307000007
:10270000638E0E0C130A1000638C4E0B130F200007
:10271000638CEE09130E3000638CCE071303400068
:10272000638C6E0493085000638C1E0313086000D2
:10273000638C0E01039902008317040013862200A4
:1027400093062400B307F902031C0600839C0600CD
:102750001306260093862600B30A9C03B38757010D
:1027600003170600839406001306260093862600AE
:10277000B30F9702B387F701831B0600839006000F
:102780001306260093862600B38E1B02B387D7015B
:10279000031A0600039F06001306260093862600F0
:1027A000330EEA03B387C7010313060083980600BC
:1027B000130626009386260033081303B387070108
:1027C00003190600039C06009386260013062600C4
:1027D000B30C8903B38797016388D3088314060079
:1027E00003970600839A260083102600B38CE40228
:1027F00003194600039C4600831E6600839B660007
:10280000031E8600039A86000313A6008394A60085
:102810008318C600B380500333879701839FC60097
:102820000318E600039FE6009386060113060601DF
:10283000B3078903B30A170033897E03338CFA0088
:10284000B30E4E03B30B2C01B30C9302338EDB019A
:10285000338AF80333039E01B304E803B30843014A
:10286000B3879800E39CD3F62320F50013054500B9
:10287000B382A201E316B5E683240101330D604162
:1028800013152D0093080000130F0000130A000019
:102890009306000013163D003304B500B383854052
:1028A000938FC3FF93D02F0013871000937A3700C4
:1028B00013030400638E0A12930710006382FA0662
:1028C0001309200063882A03032C040013980801CD
:1028D000935E0801330A8A0163DC4469138EAE00FB
:1028E000131A0E0193580A41130A000013034400FF
:1028F000130F0C0083220300139D080193530D0155
:10290000330A5A0063DC44659388A300939A080154
:1029100093D80A41130A000013034300138F0200E7
:10292000832203009397080113D90701330A5A0041
:1029300063D84461930BA900939C0B0113DE0C0137
:10294000131A0E0193580A41130A0000130343009F
:10295000138F0200631EB3086F000014B3235F00DF
:10296000032C4300B30F7D0093900F0193DA0041D5
:1029700093970A01330F89011303430013D807010A
:1029800063D6E40B9302A800032D4300139E0201BB
:10299000135A0E41130F000093130A01B300AF0145
:1029A00093DF030163D6140A138CAF0083228300E4
:1029B00093170C0113D90741930000001318090164
:1029C000338A5000135F080163D6440B9303AF00B2
:1029D000939F030113DE0F0193100E011303C30035
:1029E00093D80041130A0000138F02006306B30A54
:1029F00083220300139E0801135D0E0133095A0060
:102A0000E3DE24F5032C43001307AD009318070100
:102A100093DA08411309000093970A01330F8901E3
:102A20001303430013D80701E3CEE4F5B3AE8201EC
:102A3000B30BD801032D4300939C0B0113DA0C4117
:102A400093130A01B300AF0193DF0301E3CE14F443
:102A50003327AC01B388EF0083228300939A0801E7
:102A600013D90A4113180901338A5000135F080172
:102A7000E3CE44F5B32E5D00B30BDF01939C0B0155
:102A800013DE0C01131D0E011303C30093580D41F7
:102A9000138F0200E31EB3F493861600B305C440FF
:102AA000138F0200E31ADBDE13F4F80F135C8E00C1
:102AB0003347B401937A17001359140093DE1D00B5
:102AC000638C0A00B7A7FFFF9382170033C85E002C
:102AD000131A0801935E0A01B34BD90193FC1B0042
:102AE000135E240093D01E00638C0C0037ADFFFFF3
:102AF00093081D00B3C31001939F030193D00F01EE
:102B000033431E00137F13001355340013D71000F6
:102B1000630C0F0037A6FFFF930D1600B346B701F5
:102B20009395060113D70501B34AE50013F91A007E
:102B300093574400935B1700630C0900B7A2FFFF93
:102B40001388120033CA0B01931E0A0193DB0E0196
:102B5000B3CC770113FE1C00135D540013D31B008C
:102B6000630C0E00B7A8FFFF93831800B34F7300E8
:102B700093900F0113D30001334F6D0013751F00A5
:102B800013566400935A1300630C0500B7ADFFFFA2
:102B900093861D00B3C5DA0013970501935A070108
:102BA00033495601937719001354740093DB1A00CC
:102BB000638C0700B7A2FFFF1388120033CA0B0112
:102BC000931E0A0193DB0E0193FC1B0093DF1B0095
:102BD000638C8C0037AEFFFF130D1E00B3C8AF012E
:102BE0009393080193DF0301B3C08F0113F3100027
:102BF000135F1C0093D51F00630C030037A5FFFF74
:102C000013061500B3CDC50093960D0193D50601AB
:102C10003347BF00937A170013592C0013DA1500BD
:102C2000638C0A00B7A7FFFF13841700B3428A0022
:102C300013980201135A0801B34E2A0193FB1E0098
:102C4000935C3C00935F1A00638C0B0037AEFFFF70
:102C5000130D1E00B3C8AF019393080193DF030166
:102C6000B3C0FC0113F31000135F4C0093D51F0099
:102C7000630C030037A5FFFF13061500B3CDC50095
:102C800093960D0193D506013347BF00937A170041
:102C900013595C0013DA1500638C0A00B7A7FFFF15
:102CA00013841700B3428A0013980201135A0801D3
:102CB000B34E490193FB1E00935C6C00935F1A00B6
:102CC000638C0B0037AEFFFF130D1E00B3C8AF01BE
:102CD0009393080193DF0301B3C0FC0113F31000C9
:102CE000135C7C0093D51F00630C030037AFFFFF1C
:102CF00013051F0033C6A500931D060193D50D01D2
:102D000013D7150093F615002328E100638486018C
:102D10006F104023130E00009302000063080B267F
:102D2000832B410013141B00832EC100B38A8B0038
:102D3000832B810013182B00930C0000232C91008F
:102D4000232E3101232A0101138A0E0033898E00BC
:102D50009304080093890C00138604009305000077
:102D600013850B00EF60902C03264100138F0B009E
:102D7000330E4941130DEEFF93581D009383180045
:102D800093FF73009305060093060A009307000063
:102D9000638E0F0C93001000638C1F0A1303200036
:102DA000638C6F08130C3000638C8F071305400091
:102DB000638CAF04930D5000638CBF031307600056
:102DC000638CEF0083120A008317060093062A0023
:102DD000B3058600B387F20203980600839E0500C0
:102DE00093862600B3858500B30CD803B38797017B
:102DF000039E0600039D050093862600B38585008B
:102E0000B308AE03B387170183930600839F0500C1
:102E100093862600B3858500B380F303B38717003C
:102E200003930600039C050093862600B385850066
:102E300033058303B387A700839D0600039705002E
:102E400093862600B3858500B382ED02B3875700D1
:102E500003980600839E050093862600B3858500AF
:102E6000B30CD803B38797016386260B338E850096
:102E700083980600839F0500B3008E00039D260003
:102E8000031E0E0033838000839D00008393460061
:102E90003387F803330C8300831C0300839E660092
:102EA00083908600B3028C0003130C0033858200EC
:102EB0008398A600039C0200330DCD030398C6003F
:102EC000B3058500831F05008392E600039E05007D
:102ED000B387E70093860601B3858500B383B30308
:102EE000B38DA701B38E9E0333877D00B38C600240
:102EF000B300D70133838803B38890013305F80307
:102F0000338C68003388C203330DAC00B3070D0166
:102F1000E39E26F52320FF0013062600130F4F0023
:102F2000E31856E513861900B38B9B00330A8A0019
:102F300033898600E308CB08930906006FF0DFE1D0
:102F4000332C5F0033088901931E080113DE0E0144
:102F5000131F0E0193580F416FF05F9FB32F5F0057
:102F6000B380F30113970001935807416FF0DF9A84
:102F7000332F8F01B38BEE01939C0B0193D80C413F
:102F80006FF0DF969372F90F13DE83008320010147
:102F900093DB120033CC1200137D1C0093DA100077
:102FA000630C0D0037AAFFFF93081A0033C41A01FF
:102FB000131F0401935A0F01B3CF7A0193F31F003B
:102FC00013D9220093DE1A00638C0300B7ADFFFF14
:102FD00093871D0033C7FE0013130701935E03019F
:102FE0003345D9011378150013D6320013DC1E00C7
:102FF000630C0800B7ACFFFF93861C00B345DC00F0
:103000009390050113DC0001334DCC00937B1D0030
:1030100013DA4200935F1C00638C0B00B7A8FFFF1C
:10302000138F180033C4EF01931A040193DF0A01D0
:10303000B343FA0113F9130093DD520013D51F00B7
:10304000630C0900B7A7FFFF138717003343E500A0
:10305000931E030113D50E0133C8AD00137618007B
:1030600093DC6200135D1500630C0600B7A6FFFF3A
:1030700093851600B340BD00139C0001135D0C0145
:10308000B34B9D0113FA1B0093D27200935F1D0096
:10309000630C0A00B7A8FFFF138F180033C4EF01B9
:1030A000931A040193DF0A0193F31F0013D31F0047
:1030B000638C530037A9FFFF930D1900B347B30189
:1030C0001397070113530701B34E6E0013F51E004B
:1030D00013581E0093501300630C050037A6FFFF22
:1030E000930C1600B3C690019395060193D0050189
:1030F000334C1800137D1C00935B2E0013D410007A
:10310000630C0D0037AAFFFF93021A00B348540066
:10311000139F080113540F01B3CA8B0093FF1A00C9
:1031200093533E0013531400638C0F0037A9FFFF25
:10313000930D1900B347B301139707011353070108
:10314000B3CE630013F51E0013584E0093501300C6
:10315000630C050037A6FFFF930C1600B3C6900161
:103160009395060193D00501334C1800137D1C0084
:10317000935B5E0013D41000630C0D0037AAFFFFB1
:1031800093021A00B3485400139F080113540F010F
:10319000B34A740193FF1A0093536E001353140043
:1031A000638C0F0037A9FFFF930D1900B347B301DC
:1031B0001397070113530701B34E730013F51E0055
:1031C000135E7E0093551300630C050037A8FFFFC4
:1031D00013061800B3CCC50093960C0193D50601D5
:1031E00093F0150013D41500E392C055930000002E
:1031F000130C0000630C0B1C8322C100032D410043
:103200008323810013191B00931B2B00938A020058
:10321000330A5900330C2D01930C00001385030071
:1032200013860B0093050000EF60406093030500D8
:10323000930D0D0013070500B3085A41138FE8FFE3
:10324000935F1F0093871F0093FE370093880D0044
:1032500013880A0013030000638C0E081305100086
:103260006380AE06130E20006386CE0303930D0029
:1032700003960A0013882A00B3882D01B30666025C
:1032800093D5264093D0564093F2F50013FFF007F4
:103290003383E203831F0800839708001308280084
:1032A000B3882801B38EFF0213D52E4013DE5E4093
:1032B0001376F5009376FE07B305D6023303B30009
:1032C000831008008392080013082800B38828019F
:1032D000338F5002935F2F4093575F4093FEFF0060
:1032E00013F5F707338EAE023303C30163060A0BEF
:1032F000B38528010316080083900800B3822501D6
:103300008316280083970500831F4800B388220195
:1033100003950200330E1602031F6800839E080007
:1033200013088800B3882801B385F60293502E4015
:1033300013565E4093F2F0009377F6073385AF02A1
:1033400093D6554093DF254093F5FF0093F0F607A1
:10335000B30EDF03135E5540135F25401375FF0066
:10336000937FFE07B387F20213D65E4093D22E40BE
:1033700093FEF200137FF607B38615023303F300C2
:10338000B305F503B300D300338EEE033385B000ED
:103390003303C501E31E0AF523206700938D2D003A
:1033A00013074700E39A8DE9938D1C00B3837301E3
:1033B000B38A2A01330A2A01E304BB0D938C0D0062
:1033C0006FF0DFE513FCFD0F93508D003345840152
:1033D000137E150093531C0013591400630C0E0048
:1033E000B7AAFFFF13831A00334A690013170A01B3
:1033F0001359070133CD230113781D00935D2C0071
:10340000935E1900630C0800B7AFFFFF93821F00A3
:10341000B3C75E009398070193DE080133C4DD0152
:103420009374140093553C0013D51E00638C040064
:1034300037A6FFFF930C1600334F9501931B0F0126
:1034400013D50B01B3C6A50013FE160093534C0011
:1034500013591500630C0E00B7AAFFFF13831A005F
:10346000334A690013170A0113590701334D7900D4
:1034700013781D00935D5C00935E1900630C0800D7
:10348000B7AFFFFF93821F00B3C75E009398070199
:1034900093DE080133C4DD019374140093556C006E
:1034A00013D51E00638C040037A6FFFF930C160093
:1034B000334F9501931B0F0113D50B01B346B50094
:1034C00013FE1600135C7C0013571500630C0E00EE
:1034D000B7A3FFFF938A130033435701131A030165
:1034E00013570A011379170093521700630C8901CF
:1034F00037ADFFFF13081D00B3CD0201939F0D01EF
:1035000093D20F01B3C7500093F8170093DE100059
:1035100093DC1200638C080037A4FFFF93041400AF
:10352000B3C59C0013960501935C060133CF9E0141
:10353000937B1F0013D5200093DA1C00638C0B00D3
:10354000B7A6FFFF138E160033CCCA0193130C01EC
:1035500093DA030133C3AA00137A130013D930009E
:1035600093DF1A00630C0A0037ADFFFF13081D003C
:1035700033C70F01931D070193DF0D01B342F9011A
:1035800093F7120093D8400093DC1F00638C070070
:10359000B7AEFFFF13841E00B3C48C0093950401E3
:1035A00093DC050133C61C01137F160093DB50002A
:1035B00093D31C00630C0F0037A5FFFF9306150083
:1035C00033CED300131C0E0193530C01B3CA7B00FE
:1035D00013F31A0013DA600093DD1300630C030089
:1035E00037A9FFFF130D190033C8AD0113170801E8
:1035F000935D0701B34FBA0193F21F0093D070009F
:1036000093D41D00638C0200B7A7FFFF93881700B7
:10361000B3CE140113940E019354040193F51400D6
:1036200013D51400E398150E630C0B14032CC10082
:10363000330E604193161B00B306DC0093121E008C
:10364000130F0000931F2E00B38A5600B383564118
:103650001383E3FF135A130013091A00137D790033
:1036600093870A0063040D0A1308100063060D090E
:1036700013072000630AED06930D3000630EBD05AD
:103680009300400063021D049308500063061D036D
:10369000930E6000630ADD0103D40A0093872A00B9
:1036A000B304344123909A0083D507009387270001
:1036B000B38C3541239F97FF03D6070093872700DC
:1036C000B30B3641239F77FF03DE07009387270064
:1036D000330C3E41239F87FF83D307009387270046
:1036E00033833341239F67FE03DA07009387270064
:1036F00033093A41239F27FF03DD07009387270003
:1037000033083D41239F07FF6386D70683DD07000B
:1037100083D0270003D4470083D4670083D8870071
:1037200083DCA70083D5C70003D7E70033863D417C
:10373000B38E3041B30B3441338E3441338C384136
:10374000B3833C4133833541330A37412390C7006B
:103750002391D701239277012393C70123948701F3
:1037600023957700239667002397470193870701E6
:10377000E39ED7F8130F1F00B386FA41E316EBED73
:103780008320C10503248105931A050113D50A413D
:1037900083244105032901058329C104032A8104E7
:1037A000832A4104032B0104832BC103032C8103CF
:1037B000832C4103032D0103832DC1021301010654
:1037C00067800000032F8100832A410113860900CE
:1037D000832481018329C10133046041B3065F0161
:1037E0001318240013090000930E00009308000032
:1037F0009305000013153400B302D800B38F564070
:10380000138ECFFF93572E009383170093FD730001
:1038100013830200638E0D2813071000638AED12D4
:10382000930C200063809D119300300063861D0C73
:10383000130C4000638C8D09130D50006382AD079B
:10384000930B600063887D0303AA02001313090130
:1038500013590301B388480163D4146B9308A9007A
:10386000939A080113D90A41930800001383420078
:10387000930E0A00832F0300131E090193570E01B4
:10388000B388F80163D4143F938CA70093900C0184
:1038900013D900419308000013034300938E0F00D7
:1038A000032C0300131D0901935B0D01B3888801EC
:1038B00063D4143B1384AB00131F040113590F414D
:1038C0009308000013034300930E0C00832A0300A7
:1038D000931F090113DE0F01B388580163D4143715
:1038E0009308AE001397080113590741930800008D
:1038F00013034300938E0A00832C030093100901E5
:1039000013DC0001B388980163D414331309AC00AD
:10391000931E090113D90E419308000013034300BD
:10392000938E0C0003240300131F0901935A0F0107
:10393000B388880063D4142F9383AA00939D030156
:1039400013D90D419308000013034300930E0400A4
:103950000324030013170901935C0701B38888004F
:1039600063D0142B9388AC00139A080193530A0177
:1039700013990301135909419308000013034300ED
:10398000930E0400639666126F000026B3AE8E009D
:10399000832C4300B38FDA01139E0F01935D0E4118
:1039A00093900D01330D97011303430013DC0001C5
:1039B00063DEA4131304AC00832A4300131F040125
:1039C00013590F41130D0000931E0901B3035D014C
:1039D00093DF0E0163DE7412938CAF00032C83001F
:1039E00093900C0113D7004193030000131D0701AE
:1039F000B3888301935B0D0163DE1413938AAB00DC
:103A0000832FC300939E0A0113DF0E419308000029
:103A100093130F01B38DF80193D7030163DEB41341
:103A2000138CA700832B0301131D0C0193500D4130
:103A3000930D00009398000133897D0113DA08018A
:103A400063DE2413930EAA00832D430193930E018A
:103A500093DF03411309000093970F01B30CB901E1
:103A600013D7070163DE9413930BA700032483018C
:103A700093980B0113DD0841930C0000131A0D01FC
:103A8000B3888C0013590A0163DE1413930DA90047
:103A900093970D0193D30701139703011303C301F8
:103AA0001359074193080000930E0400638E6612B9
:103AB00003240300131F0901935A0F013387880061
:103AC000E3D6E4EC832C43009387AA009393070189
:103AD00093DD03411307000093900D01330D97010F
:103AE0001303430013DC0001E3C6A4EDB32B9401E0
:103AF000B3087C01832A4300139A080113590A4131
:103B0000931E0901B3035D0193DF0E01E3C674EC5C
:103B100033AE5C01B387CF01032C8300939D070173
:103B200013D70D41131D0701B3888301935B0D016A
:103B3000E3C614ED33AA8A0133894B01832FC300F6
:103B400013140901135F044193130F01B38DF8019E
:103B500093D70301E3C6B4ED332EFC013387C701CD
:103B6000832B0301931C070193D00C419398000110
:103B700033897D0113DA0801E3C624ED33A47F0104
:103B8000330F8A00832D4301931A0F0193DF0A41FB
:103B900093970F01B30CB90113D70701E3C694ED56
:103BA00033AEBB01B300C70103248301139C0001A2
:103BB000135D0C41131A0D01B3888C0013590A01CF
:103BC000E3C614ED33AF8D00B30AE901939F0A01F8
:103BD00093D30F01939E03011303C30113D90E4125
:103BE000930E0400E39666EC938C1500B386A24016
:103BF000930E04006308B6B893850C006FF0DFBF26
:103C0000B3A08E00338C1C00131D0C0193530D01C7
:103C1000939B030113D90B416FF05FD6B3AF8E00B6
:103C2000338EFA0193170E0113D907416FF0DFD1DC
:103C300033AD9E01B30BAC01139A0B0113590A412A
:103C40006FF0DFCDB3A75E01B303FE00939D0301C8
:103C500013D90D416FF0DFC933AA8E0133894B01AF
:103C6000931E090113D90E416FF0DFC5B3A3FE0106
:103C7000B38D770013970D01135907416FF0DFC122
:103C8000032981003307604193152700B30B7901A5
:103C9000930D0000930E0000130300009306000034
:103CA00013163700338CBB00338D8B411308CDFFC7
:103CB00093582800938F180093F23F0093080C004C
:103CC000638E0212930710006382F206130F200026
:103CD0006388E20383200C00139E0D01935D0E01A7
:103CE0003303130063D464201383AD00931A0301DC
:103CF00093DD0A411303000093084C00938E0000EB
:103D000003AA080013970D01135907013303430158
:103D100063D4641C9302A9009397020193DD0741C9
:103D20001303000093884800930E0A0003AE0800B6
:103D3000139F0D0193500F013303C30163D0641827
:103D40001383A000931A030113DD0A01131A0D0156
:103D5000935D0A411303000093884800930E0E0000
:103D6000639E78096F00001433ADCE0183AD480027
:103D70003308A901931F080113DF0F41931E0F01A0
:103D8000B383B0019388480013D50E0163D6740A3B
:103D90001307A50003AD480013190701135E09417D
:103DA0009303000013180E01B382A301935F08016F
:103DB00063D6540A938EAF0003AE880013950E01AC
:103DC000935D05419302000093930D013383C2017B
:103DD00093DA030163D6640A938FAA0093920F01CA
:103DE00013DD020193170D019388C80093DD07418D
:103DF00013030000930E0E006386780B03AE0800D9
:103E000013970D0113590701B300C301E3DE14F446
:103E100083AD48009302A9009397020113DF074185
:103E200093000000931E0F01B383B00193884800F4
:103E300013D50E01E3CE74F43323BE01B30A65003B
:103E400003AD4800139A0A01135E0A4113180E01CC
:103E5000B382A301935F0801E3CE54F4B3A7AD018D
:103E6000338FFF0003AE880093100F0193DD0041F4
:103E700093930D013383C20193DA0301E3CE64F41B
:103E8000332ACD0133874A0113190701135D090154
:103E900013180D019388C800935D0841930E0E001E
:103EA000E39E78F5138F1600B30BCC40930E0E00F3
:103EB000638ADCD093060F006FF0DFDEB3ADCE0176
:103EC000B38EB00113950E01135D050193130D011F
:103ED00093DD03416FF05FE833AD4E013308A90174
:103EE000931F080193DD0F416FF0DFE3B3AE1E00B7
:103EF0003385DD019313050193DD03416FF0DFDFAF
:103F0000B3AE4E013304D901131F040113590F41FD
:103F10006FF0DF95B7ACFFFF13861C00334FC50071
:103F2000931B0F0113D50B016FF00FF037ACFFFFA0
:103F3000130D1C00B34BA401139A0B0113540A0177
:103F40006FF0CFAAB7AAFFFF13891A00B347270162
:103F50001394070193520401232851006FE09FDB63
:103F600037A8FFFF1306180033C9CD0093150901C8
:103F700093DD050163040B006FE04FF3130C0000A9
:103F8000130400006FE0DFB2130700009307000086
:103F9000930D00006FE00FD0130101FF13870500A0
:103FA00083268500232481008325C5001304060091
:103FB000032645000325050023261100EFD01FEE40
:103FC000B346A4001377F50F9317050193F216007B
:103FD00013D307011356170013581400638C020003
:103FE000B7A0FFFF938310003345780093150501B8
:103FF00013D80501B348C80013FE1800935E2700CC
:1040000093521800630C0E0037AFFFFF930F1F0091
:1040100033C4F2019316040193D20601B3C7D2014F
:1040200093F017001356370093D81200638C0000EA
:10403000B7A3FFFF9385130033C5B800131805011C
:104040009358080133CEC800937E1E00135F4700CB
:1040500093D71800638C0E00B7AFFFFF13841F00C7
:10406000B3C687009392060193D70201B3C0E7015C
:1040700093F310001356570013DE1700638C0300F0
:10408000B7A5FFFF1388150033450E0193180501EE
:1040900013DE0801B34ECE0013FF1E00935F6700CE
:1040A00093501E00630C0F0037A4FFFF930614000B
:1040B000B3C2D0009397020193D00701B3C3F001BC
:1040C00013F613001357770013DE1000630C06007D
:1040D000B7A5FFFF1388150033450E01931805019E
:1040E00013DE0801937E1E0093521E00638CEE00C7
:1040F00037AFFFFF930F1F0033C4F2019316040183
:1041000093D2060113538300B3C062009377F30F79
:1041100093F3100013D6170093D81200638C03009A
:1041200037A7FFFF9305170033C8B8001315080120
:1041300093580501334E1601937E1E0013DF2700AE
:1041400013D31800638C0E00B7AFFFFF13841F005A
:10415000B34683009392060113D30201B340E301F7
:1041600093F3100013D6370093581300638C0300A9
:1041700037A7FFFF9305170033C8B80013150801D0
:104180009358050133CEC800937E1E0013DF47000D
:1041900013D31800638C0E00B7AFFFFF13841F000A
:1041A000B34683009392060113D30201B340E301A7
:1041B00093F3100013D6570093581300638C030039
:1041C00037A7FFFF9305170033C8B8001315080180
:1041D0009358050133CEC800937E1E0013DF67009D
:1041E00013D31800638C0E00B7AFFFFF13841F00BA
:1041F000B34683009392060113D30201B340E30157
:1042000093F3100093D7770013551300638C0300CA
:1042100037A6FFFF13071600B345E5001398050105
:10422000135508019378150013551500638CF80099
:1042300037AEFFFF930E1E00334FD501931F0F01C2
:1042400013D50F018320C100032481001301010154
:1042500067800000130101FD2326810223249102BF
:104260002322210323203103232E4101232C51013A
:10427000232A61012328710123268101232491012E
:104280001307050063140600130610009384F5FF5E
:1042900093F2C4FF93894200130500006300073ABC
:1042A00093071500B385F70293883700138F4700F3
:1042B00013835700138E6700938E77009393350016
:1042C00063F2E30813881700330908031385070016
:1042D000931A390063F8EA06130B1800B30B6B034B
:1042E00013050800139C3B00637EEC04B38C180399
:1042F0001385270093923C0063F6E204B304EF03B6
:1043000013850800139A3400637EEA0233046302C3
:1043100013050F009317340063F6E702B308CE03CA
:1043200013050300139F3800637EEF003383DE0321
:1043300013050E00131E33006376EE0013850E0086
:104340006FF01FF63307A502130A050013141700B8
:10435000B3848900630C0528B70E010013191500FA
:10436000938F04009303000013081000338F9940CB
:10437000938EFEFF330606039315080193DA0501B9
:10438000930BF5FF13FC3B00330BFF01130E1000E2
:1043900093852F0013081800935CF64193D20C010B
:1043A000B3075600B3F8D701338658403383CA00A9
:1043B00013170301935B0701B38A5B0123907F010D
:1043C00093FCFA0F23109B01637CAE20630C0C0E50
:1043D0006302CC0B130B200063086C053306060345
:1043E000131E0801135C0E01B302BF00130E200060
:1043F000130818009357F64193D8070133031601A9
:104400003377D30133061741B30BCC00939A0B01DA
:1044100093DC0A01338B8C01239095019375FB0F7C
:104420002390B20093854F0033060603131C080146
:1044300093520C01B308BF00130E1E00130818009E
:10444000938525009357F64113D307013307660080
:10445000B37BD70133866B40B38AC200939C0A01B9
:1044600013DB0C01330C5B00239F65FF9372FC0F81
:1044700023905800330606039318080193D70801C8
:104480003303BF0093852500130E1E001308180088
:104490001357F641935B0701B30A7601B3FCDA01C7
:1044A00033867C41338BC700131C0B0193520C01E4
:1044B000B388F200239F55FE93F7F80F2310F30003
:1044C0006370AE12330606031307280013130801A6
:1044D000931C07019352030113D30C019307180097
:1044E000939B0701330CBF0013DB0B01935CF64178
:1044F00093DC0C01330696013376D601B30C96415A
:10450000B387FC0233869201931C060113D60C017B
:10451000B30256002390C50093FCF20F23109C01B8
:10452000930B0C0013060C0093020C0013DCF741F4
:10453000935C0C01B387970133FCD701B30C9C410A
:104540003387EC02B3079B01139C0701935C0C01BA
:10455000338B6C01239195019377FB0F2391FB0023
:10456000930A380093980A01935BF74113DC0B011F
:1045700033078701B37CD701338B8C41B30A5B03CC
:10458000B3076301939B070113DC0B0133036C003A
:1045900093858500239E85FF1377F30F2312E60092
:1045A00093D8080113D6FA41935C0601338B9A0124
:1045B000B37ADB0133869A41B387C800939B070126
:1045C00013DC0B01B3081C01239F85FF13F3F80FC5
:1045D000130E4E002393620013084800E364AEEE0E
:1045E00093831300B38F2F01E3E6A3D833848400B1
:1045F0001309F4FF937FC9FF0324C10293834F0083
:1046000023A2360123A4960023A0460123A6760008
:10461000832481020329410283290102032AC10163
:10462000832A8101032B4101832B0101032CC1004B
:10463000832C8100130101036780000093846200D2
:10464000130AF0FF1305F0FF130420006FF0DFD012
:10465000630205483308A040131725003387E5009F
:10466000931828009305000093070000130F000023
:10467000130E000013183800B386E800B30ED740BD
:104680009382CEFF13D322009303130093FE730093
:104690001383060063800E26930F1000638AFE13B7
:1046A0009302200063805E109303300063867E0CCB
:1046B000930F4000638CFE099302500063825E06F4
:1046C0009303600063887E0283AE06009397070120
:1046D00013D30701330EDE016354C63F130EA3004C
:1046E00093130E0193D70341130E0000138346006A
:1046F000138F0E00832E03009397070193DF0701AA
:10470000330EDE016354C63B138EAF0093170E01C8
:1047100093D70741130E000013034300138F0E00BD
:10472000832E0300939F070193D20F01330EDE0106
:104730006354C637138EA200931F0E0193D70F4107
:10474000130E000013034300138F0E00832E03008B
:104750009392070193D30201330EDE016354C633F3
:10476000138EA30093120E0193D70241130E000083
:1047700013034300138F0E00832E0300939307014E
:1047800093DF0301330EDE016354C62F138EAF0097
:1047900093130E0193D70341130E0000130343003C
:1047A000138F0E00832F0300939E070193D20E01F7
:1047B000330EFE016354C62B138EA200931E0E010E
:1047C00093D70E41130E000013034300138F0F0005
:1047D000832F03009392070193D70201330EFE014A
:1047E0006354C627138EA70093120E0193D702417C
:1047F000130E000013034300138F0F00631C670E9A
:104800006F000022938EA200832F430093930E012A
:1048100093D203419303000093970201338EF30177
:1048200093D207016358C6139382A200032F83001B
:10483000139E020193570E41130E0000939E070131
:10484000B302EE0193D30E0163585612938EA30068
:10485000832FC30093920E0193D302419302000071
:1048600093970301338EF20193D307016358C61364
:104870009383A300032F0301139E030193570E415B
:10488000130E0000939E0701B303EE0193D20E01B5
:1048900063587612938EA200832F430193930E01E7
:1048A00093D203419303000093970201338EF301E7
:1048B00093D207016358C6139382A200032F83018A
:1048C000139E020193570E41130E0000939E0701A1
:1048D000330EEE0193D30E016358C613938EA300DB
:1048E00093930E011303C30193D70341130E0000EA
:1048F00063086712832F03009397070193D307017F
:10490000330EFE016348C613332FFF01B38EE3015C
:1049100093920E0193D30241032F4300939E030110
:1049200013034300B303EE0193D20E01E34C76EC84
:10493000B3AFEF01B387F201832F4300139E07014A
:1049400093520E4193970201338EF30193D20701E4
:10495000E34CC6ED332FFF01B38EE201032F83003A
:1049600093930E0193D70341939E0701B302EE0187
:1049700093D30E01E34C56ECB3AFEF01B387F301D1
:10498000832FC300139E070193530E419397030196
:10499000338EF20193D30701E34CC6ED332FFF01B1
:1049A000B38EE301032F030193920E0193D70241CB
:1049B000939E0701B303EE0193D20E01E34C76EC14
:1049C000B3AFEF01B387F201832F4301139E0701B9
:1049D00093520E4193970201338EF30193D2070154
:1049E000E34CC6ED332FFF01B38EE201032F8301A9
:1049F00093930E0193D70341939E0701330EEE016B
:104A000093D30E01E34CC6EDB3AFEF01B387F301CF
:104A1000939207011303C30193D70241E31C67EC90
:104A20009385150033870641E318B5C41385070045
:104A300067800000138EA30093170E0193D30741E4
:104A4000130E00006FF05FED332FFF01B383E7011A
:104A5000939E030193D70E416FF0DFD9332FFF01EF
:104A6000B387E2019393070193D703416FF0DFD53A
:104A7000332FDF01B387EF019392070193D70241F0
:104A80006FF0DFD1332FDF01B387E301939F07017D
:104A900093D70F416FF0DFCD332FDF01B383E201F6
:104AA0009397030193D707416FF0DFC9332FDF01DD
:104AB000B382EF019393020193D703416FF0DFC5F7
:104AC000332FDF01B30FE30193920F0193D702411C
:104AD0006FF0DFC1930700001385070067800000B7
:104AE0006306051A130101FFB303A0401318150054
:104AF00023268100232491001394130023222101F3
:104B0000232031019314250033080601930200008D
:104B100093932300B3088800330618411303E6FF7C
:104B2000135713009307170013F977001387050035
:104B3000938708006302090C930910006302390B84
:104B4000130E20006304C909930E30006306D907D1
:104B5000130F40006308E905930F5000630AF9033F
:104B600013066000630CC9000393080093872800B4
:104B7000138745003309D30223A025018399070039
:104B80001307470093872700338ED902232EC7FFD0
:104B9000839E07001307470093872700338FDE02A9
:104BA000232EE7FF839F0700130747009387270003
:104BB0003386DF02232EC7FE039307001307470047
:104BC000938727003309D302232E27FF83990700F9
:104BD0001307470093872700338ED902232EC7FF80
:104BE000839E07001307470093872700338FDE0259
:104BF000232EE7FF6308F80683990700039927002F
:104C0000839F4700039F6700839E8700039EA70042
:104C10000393C7000396E700B389D902130707027D
:104C2000938707013309D902232037FFB38FDF02AF
:104C3000232227FF330FDF022324F7FFB38EDE0288
:104C40002326E7FF330EDE022328D7FF3303D302E8
:104C5000232AC7FF3306D602232C67FE232EC7FE66
:104C6000E31CF8F893821200B385950033887840EE
:104C7000E31255EA0324C100832481000329410083
:104C80008329010013010101678000006780000093
:104C9000630E0522B302A040931606019317150078
:104CA0009393120093D606013386F500930F00000C
:104CB00093922200B385C3003307B6401303E7FF86
:104CC000135813009308180013FE7800938705000B
:104CD00063040E0A930E10006306DE09130F200012
:104CE000630AEE0713073000630EEE04130340005F
:104CF00063026E041308500063060E0393086000FD
:104D0000630A1E0103DE050093872500B38EC601EA
:104D10002390D50103DF0700938727003387E6013F
:104D2000239FE7FE03D3070093872700338866009D
:104D3000239F07FF83D8070093872700338E160130
:104D4000239FC7FF83DE070093872700338FD60199
:104D5000239FE7FF03D70700938727003383E600ED
:104D6000239F67FE03D8070093872700B3880601B7
:104D7000239F17FF6306F614130101FF232681000A
:104D800003D4070003DF270083DE470003DE67004C
:104D900003D3870083D8A70003D8C70003D7E70051
:104DA00033848600338FE601B38ED601338EC6017D
:104DB00033836600B3881601338806013387E60023
:104DC000239087002391E7012392D7012393C70102
:104DD0002394670023951701239607012397E70083
:104DE00093870701E31EF6F8938F1F003386554023
:104DF0006302F50DB385C300B307B6401384E7FF24
:104E0000135F1400930E1F0013FE7E0093870500AE
:104E1000E3080EF613031000630E6E0693082000DD
:104E200063021E071308300063060E0513074000D7
:104E3000630AEE0213045000630E8E00130F60002D
:104E40006318EE0903D3070093872700B388660031
:104E5000239F17FF03D80700938727003387060196
:104E6000239FE7FE03D4070093872700338F860034
:104E7000239FE7FF83DE070093872700338ED60149
:104E8000239FC7FF03D3070093872700B3886600DB
:104E9000239F17FF03D80700938727003387060156
:104EA000239FE7FEE31EF6EC938F1F0033865540E9
:104EB000E312F5F50324C10013010101678000002E
:104EC000938F1F0033865540E316F5DF678000009F
:104ED00083DE050093872500338ED6012390C5011C
:104EE0006FF05FF663080522130101FD938705004B
:104EF000232E31019319250023229102232021031F
:104F000093040500130906009305000013860900A9
:104F1000138507002324810223261102138406002F
:104F2000232C4101232A51012328610123267101E9
:104F300023248101EF40900F939E140093050500F8
:104F4000130E0900330F3501B306D401B388864030
:104F50009380E8FF93D210001383120093737300C1
:104F60009307040013070E0013030000638E030C65
:104F700013061000638CC30A13052000638CA3087A
:104F800013083000638C0307130A4000638C430549
:104F9000930A5000638C5303130B6000638C63010E
:104FA000831B0E00031C040013072E00930724002C
:104FB00033838B03831F0700039907001307270020
:104FC00093872700B3842F033303930083190700CB
:104FD000839807001307270093872700B3801903DE
:104FE000330313008312070083930700130727007E
:104FF00093872700338672023303C3000318070028
:10500000039507001307270093872700330AA80298
:1050100033034301831A0700039B0700130727008C
:1050200093872700B38B6A0333037301031C0700C4
:10503000839F070093872700130727003309FC038A
:10504000330323016388F60883140700839807005D
:105050008319270083902700338814030316470021
:10506000839B470083136700039B670083128700BD
:10507000839A8700031CA700039AA7008318C70020
:10508000B38F19020399C7000315E7008394E70063
:10509000330303019387070113070701B30976035D
:1050A000B300F301B38B630333863001B383520340
:1050B000330B760133084C03B3027B00B38A280319
:1050C000338C0201330A9502B3085C013383480133
:1050D000E39CF6F623A0650093854500330EDE01C0
:1050E000E316BFE68320C102032481028324410228
:1050F000032901028329C101032A8101832A410175
:10510000032B0101832BC100032C81001301010338
:105110006780000067800000630E0526130101FB15
:105120002324810413141500232291042320210534
:10513000232E3103232C4103232A51032328610307
:1051400023267103232611042324810323229103A0
:105150002320A103232EB1012326D10093040500AF
:1051600093090600931B2500938A050033098600E6
:10517000338A8600130B000013860B009305000092
:1051800013850A00EF40806A0326C100138F0A00CE
:10519000330739419300E7FF93D2100013831200C5
:1051A000937373009305060093860900930700002C
:1051B000638E030C13051000638CA30A13082000F0
:1051C000638C030993083000638C1307130C4000B1
:1051D000638C8305930C5000638C9303130D600064
:1051E000638CA301839D0900831706009386290021
:1051F000B3058600B387FD02039E0600839E05006B
:1052000093862600B3858500B30FDE03B387F701CD
:10521000039706008390050093862600B3858500DA
:10522000B3021702B3875700039306008393050068
:1052300093862600B385850033057302B387A700E4
:10524000039806008398050093862600B3858500A1
:10525000330C1803B3878701839C0600039D050068
:1052600093862600B3858500B38DAC03B387B70161
:10527000039E0600839E050093862600B385850065
:10528000B30FDE03B387F7016306D90AB380850045
:10529000839206000397050033838000039E00007D
:1052A000039D260033088300831D0300839346007B
:1052B00033058800B380E202831C0800839F6600E8
:1052C000B30E850003938600031C05008398A60097
:1052D00033878E0083920E000398C600330DCD03F2
:1052E000B3058700831E07000395E600039E0500B3
:1052F000B387170093860601B3858500B383B30394
:10530000B38DA701B38F9F03B3807D00B30C8303DC
:105310003383F001338C5802B3089301B302D803EE
:10532000338888013307C503330D5800B307ED00F8
:10533000E31ED9F42320FF0013062600130F4F00AD
:10534000E318CAE4130B1B00B38A7A01B3898900FE
:1053500033098900E39264E38320C10403248104B8
:1053600083244104032901048329C103032A8103FF
:10537000832A4103032B0103832BC102032C8102E7
:10538000832C4102032D0102832DC101130101056C
:105390006780000067800000630E0520130101FD97
:1053A00023202103131915002324810223229102B3
:1053B000232E3101232C4101232A5101232861018D
:1053C000232671012326110293840600130405008D
:1053D000130A0600931B250013880500B309260154
:1053E000B38A2601130B00001305080013860B0077
:1053F00093050000EF408043130805001383040069
:10540000130E0500B38749419380E7FF93D2100044
:105410009383120013F533009308030093060A00E8
:10542000930E0000630C0508130710006300E506E7
:10543000930520006306B502831E030003160A00CD
:1054400093062A00B3082301330FD603935F2F403E
:1054500093575F4093F0FF0093F2F707B38E50022B
:10546000839306000395080093862600B3882801DD
:10547000B385A30213D7254013D65540137FF700F9
:10548000937FF607B307FF03B38EFE0083900600F9
:105490008392080093862600B3882801B3835002C4
:1054A00013D5234093D553401377F50013F6F50732
:1054B000330FC702B38EEE016386D90AB38F28017A
:1054C0008390060083930800B3872F01039526007D
:1054D00003970F00B3882701839207008395460046
:1054E000338F7002839F08000396660093868600C0
:1054F000B3882801B300E50293532F4013555F4052
:1055000013F7F3009377F507B385550293D2204044
:1055100093D0504093F3F00713FFF2003306F603E5
:1055200013D5554093DF254093F2FF009375F5079F
:10553000B307F7029350564013572640937FF70066
:1055400013F6F007330F7F02B38EFE00B383B2026F
:105550003385EE01B382CF02B3057500B38E5500DB
:10556000E39ED9F42320DE0113032300130E4E0023
:10557000E39A6AE8130B1B0033087801330A2A0107
:10558000B3892901E31264E78320C1020324810265
:1055900083244102032901028329C101032A8101D5
:1055A000832A4101032B0101832BC1001301010355
:1055B00067800000678000001303F5FF9307100069
:1055C000130E060063FC6714938615009392060180
:1055D00093D6020193F37600938FD3FF93970F0135
:1055E000B7D50280B7D8028013D736001306400023
:1055F00093D20701130800009385057D9388487AAC
:10560000130F8000930EC002937337006366560A2F
:10561000939F220033871F01832707009392230063
:10562000B383550093861600930F98006780070098
:105630009397060103A7030193D6070163FA6F0A44
:105640009302800083430700B3070E012380770095
:1056500003481700A38007018343270023817700B5
:1056600003483700A38107016384C20283434700D4
:105670002382770003485700A38207018343670012
:10568000238377006396E20103477700A383E70053
:1056900093F3760013880F00938FD3FFB3825700E4
:1056A00093970F012380D20113D7360093D20701BD
:1056B00093733700E37E56F4939F23009383160081
:1056C000B387F50193960301930F580003A70700D2
:1056D00093D6060163FE6F00930240006FF09FF6C1
:1056E0009392060103A7030293D60201E3EA6FF443
:1056F0006374A802330605419305000033050E01CB
:105700006F40C01203A703039393060193D60301CE
:10571000E3E86FF2E360A8FE678000001308000072
:10572000330605419305000033050E016F4000105C
:105730008327050083C607006388062E1308C0026E
:1057400013871700638E062B83A80500138606FDBA
:105750009372F60F1303900093831800636C530A3F
:1057600023A0750003C3170063040316138E2700DC
:10577000630E0315130603FD130FE002930F900051
:105780009308C0021378F60F6306E30363E00F0D7E
:105790000343170093031E0013070E006308031250
:1057A000630A132B130603FD138E03001378F60F01
:1057B000E31EE3FD83A70501938E170023A8D501FF
:1057C00083431700638203281307C002930E1E0051
:1057D0006382E322130F5004930F90009308C002DA
:1057E000138803FD93F6F30D9372F80F6386E60FAB
:1057F00063FA5F1A03A3450113870E009303100099
:105800001306130023AAC5002320E5001385030017
:1058100067800000130EB002638AC605930ED002A3
:105820006386D605130FE002638CE61983AF45004B
:1058300023A075009303100093861F0023A2D500B8
:105840002320E500138503006780000083A605017F
:1058500013070E00930310009382160023A855002F
:105860002320E500138503006780000023A0750056
:1058700083C817006380081C13872700638C081BEC
:1058800003A68500138808FD9372F80F1303900098
:105890009303160063705302130EE0026380C81571
:1058A00023A47500930310002320E5001385030053
:1058B0006780000023A4750003C32700630A030068
:1058C000930EC002130E1700E316D3EB13070E005E
:1058D000930340006FF0DFF883A74501138717009B
:1058E00023AAE500034E1E00630A0E12130FC00226
:1058F00013871E006306EE1383AFC50093085EFD99
:1059000013F8D80F93861F0023A6D500630A08005A
:10591000930310002320E500138503006780000037
:1059200083C21E006388020E13872E006384E20F79
:1059300003A38501138602FD9373F60F130E130064
:105940009307900023ACC501E3E477FC83C22E00EB
:10595000638E020A13863E006388E20B930E90006A
:10596000130FC002938F02FD93F8FF0F63FE1E0119
:1059700003A84500130706009303100093061800C0
:1059800023A2D5006FF0DFED83421700130316004A
:1059900013070600638A02066382E20B1306030004
:1059A0006FF05FFC83431E0013871E00138E0E00F2
:1059B0006382030463821305930E07006FF05FE2B6
:1059C00023A0750083C3170063880302938E27000A
:1059D00063820303130E07006FF0DFDF23A475005B
:1059E00083C32700638A03009307C002930E170046
:1059F000E392F3FE13870E00930350006FF05FE60F
:105A0000930300006FF0DFE51307060093037000B7
:105A10006FF01FE5930360006FF09FE413870E00A3
:105A2000930330006FF0DFE3138707009303000058
:105A30006FF01FE3930320006FF09FE21307030052
:105A4000930370006FF0DFE113070E009303500023
:105A50006FF01FE113870300930340006FF05FE0D6
:105A6000130101F8232C8106232A910623282107FC
:105A7000232631072322510723206107232E710596
:105A8000232E1106232441071389050083C5050031
:105A900093040103232801022326210123A20400E9
:105AA00023A4040023A6040023A8040023AA0400BE
:105AB00023AC040023AE040023280100232A0100A4
:105AC000232C0100232E01002320010223220102A6
:105AD000232401022326010293090500930B0600EB
